{
  "contractName": "ChiToken",
  "abi": [
    {
      "inputs": [],
      "stateMutability": "nonpayable",
      "type": "constructor"
    },
    {
      "anonymous": false,
      "inputs": [
        {
          "indexed": true,
          "internalType": "address",
          "name": "owner",
          "type": "address"
        },
        {
          "indexed": true,
          "internalType": "address",
          "name": "spender",
          "type": "address"
        },
        {
          "indexed": false,
          "internalType": "uint256",
          "name": "value",
          "type": "uint256"
        }
      ],
      "name": "Approval",
      "type": "event"
    },
    {
      "anonymous": false,
      "inputs": [
        {
          "indexed": true,
          "internalType": "address",
          "name": "from",
          "type": "address"
        },
        {
          "indexed": true,
          "internalType": "address",
          "name": "to",
          "type": "address"
        },
        {
          "indexed": false,
          "internalType": "uint256",
          "name": "value",
          "type": "uint256"
        }
      ],
      "name": "Transfer",
      "type": "event"
    },
    {
      "inputs": [
        {
          "internalType": "address",
          "name": "owner",
          "type": "address"
        },
        {
          "internalType": "address",
          "name": "spender",
          "type": "address"
        }
      ],
      "name": "allowance",
      "outputs": [
        {
          "internalType": "uint256",
          "name": "",
          "type": "uint256"
        }
      ],
      "stateMutability": "view",
      "type": "function"
    },
    {
      "inputs": [
        {
          "internalType": "address",
          "name": "spender",
          "type": "address"
        },
        {
          "internalType": "uint256",
          "name": "amount",
          "type": "uint256"
        }
      ],
      "name": "approve",
      "outputs": [
        {
          "internalType": "bool",
          "name": "",
          "type": "bool"
        }
      ],
      "stateMutability": "nonpayable",
      "type": "function"
    },
    {
      "inputs": [
        {
          "internalType": "address",
          "name": "account",
          "type": "address"
        }
      ],
      "name": "balanceOf",
      "outputs": [
        {
          "internalType": "uint256",
          "name": "",
          "type": "uint256"
        }
      ],
      "stateMutability": "view",
      "type": "function"
    },
    {
      "inputs": [],
      "name": "decimals",
      "outputs": [
        {
          "internalType": "uint8",
          "name": "",
          "type": "uint8"
        }
      ],
      "stateMutability": "view",
      "type": "function"
    },
    {
      "inputs": [
        {
          "internalType": "address",
          "name": "spender",
          "type": "address"
        },
        {
          "internalType": "uint256",
          "name": "subtractedValue",
          "type": "uint256"
        }
      ],
      "name": "decreaseAllowance",
      "outputs": [
        {
          "internalType": "bool",
          "name": "",
          "type": "bool"
        }
      ],
      "stateMutability": "nonpayable",
      "type": "function"
    },
    {
      "inputs": [
        {
          "internalType": "address",
          "name": "spender",
          "type": "address"
        },
        {
          "internalType": "uint256",
          "name": "addedValue",
          "type": "uint256"
        }
      ],
      "name": "increaseAllowance",
      "outputs": [
        {
          "internalType": "bool",
          "name": "",
          "type": "bool"
        }
      ],
      "stateMutability": "nonpayable",
      "type": "function"
    },
    {
      "inputs": [],
      "name": "name",
      "outputs": [
        {
          "internalType": "string",
          "name": "",
          "type": "string"
        }
      ],
      "stateMutability": "view",
      "type": "function"
    },
    {
      "inputs": [],
      "name": "symbol",
      "outputs": [
        {
          "internalType": "string",
          "name": "",
          "type": "string"
        }
      ],
      "stateMutability": "view",
      "type": "function"
    },
    {
      "inputs": [],
      "name": "totalSupply",
      "outputs": [
        {
          "internalType": "uint256",
          "name": "",
          "type": "uint256"
        }
      ],
      "stateMutability": "view",
      "type": "function"
    },
    {
      "inputs": [
        {
          "internalType": "address",
          "name": "to",
          "type": "address"
        },
        {
          "internalType": "uint256",
          "name": "amount",
          "type": "uint256"
        }
      ],
      "name": "transfer",
      "outputs": [
        {
          "internalType": "bool",
          "name": "",
          "type": "bool"
        }
      ],
      "stateMutability": "nonpayable",
      "type": "function"
    },
    {
      "inputs": [
        {
          "internalType": "address",
          "name": "from",
          "type": "address"
        },
        {
          "internalType": "address",
          "name": "to",
          "type": "address"
        },
        {
          "internalType": "uint256",
          "name": "amount",
          "type": "uint256"
        }
      ],
      "name": "transferFrom",
      "outputs": [
        {
          "internalType": "bool",
          "name": "",
          "type": "bool"
        }
      ],
      "stateMutability": "nonpayable",
      "type": "function"
    },
    {
      "inputs": [],
      "name": "wrap",
      "outputs": [],
      "stateMutability": "payable",
      "type": "function"
    },
    {
      "inputs": [
        {
          "internalType": "uint256",
          "name": "amount",
          "type": "uint256"
        }
      ],
      "name": "unwrap",
      "outputs": [],
      "stateMutability": "nonpayable",
      "type": "function"
    }
  ],
  "bytecode": "0x60806040523480156200001157600080fd5b506040518060400160405280600881526020017f436869546f6b656e0000000000000000000000000000000000000000000000008152506040518060400160405280600381526020017f434849000000000000000000000000000000000000000000000000000000000081525081600390816200008f9190620004e3565b508060049081620000a19190620004e3565b505050620000e333620000b9620000e960201b60201c565b600a620000c791906200075a565b620f4240620000d79190620007ab565b620000f260201b60201c565b620008e2565b60006012905090565b600073ffffffffffffffffffffffffffffffffffffffff168273ffffffffffffffffffffffffffffffffffffffff160362000164576040517f08c379a00000000000000000000000000000000000000000000000000000000081526004016200015b9062000857565b60405180910390fd5b62000178600083836200025f60201b60201c565b80600260008282546200018c919062000879565b92505081905550806000808473ffffffffffffffffffffffffffffffffffffffff1673ffffffffffffffffffffffffffffffffffffffff168152602001908152602001600020600082825401925050819055508173ffffffffffffffffffffffffffffffffffffffff16600073ffffffffffffffffffffffffffffffffffffffff167fddf252ad1be2c89b69c2b068fc378daa952ba7f163c4a11628f55a4df523b3ef836040516200023f9190620008c5565b60405180910390a36200025b600083836200026460201b60201c565b5050565b505050565b505050565b600081519050919050565b7f4e487b7100000000000000000000000000000000000000000000000000000000600052604160045260246000fd5b7f4e487b7100000000000000000000000000000000000000000000000000000000600052602260045260246000fd5b60006002820490506001821680620002eb57607f821691505b602082108103620003015762000300620002a3565b5b50919050565b60008190508160005260206000209050919050565b60006020601f8301049050919050565b600082821b905092915050565b6000600883026200036b7fffffffffffffffffffffffffffffffffffffffffffffffffffffffffffffffff826200032c565b6200037786836200032c565b95508019841693508086168417925050509392505050565b6000819050919050565b6000819050919050565b6000620003c4620003be620003b8846200038f565b62000399565b6200038f565b9050919050565b6000819050919050565b620003e083620003a3565b620003f8620003ef82620003cb565b84845462000339565b825550505050565b600090565b6200040f62000400565b6200041c818484620003d5565b505050565b5b8181101562000444576200043860008262000405565b60018101905062000422565b5050565b601f82111562000493576200045d8162000307565b62000468846200031c565b8101602085101562000478578190505b6200049062000487856200031c565b83018262000421565b50505b505050565b600082821c905092915050565b6000620004b86000198460080262000498565b1980831691505092915050565b6000620004d38383620004a5565b9150826002028217905092915050565b620004ee8262000269565b67ffffffffffffffff8111156200050a576200050962000274565b5b620005168254620002d2565b6200052382828562000448565b600060209050601f8311600181146200055b576000841562000546578287015190505b620005528582620004c5565b865550620005c2565b601f1984166200056b8662000307565b60005b8281101562000595578489015182556001820191506020850194506020810190506200056e565b86831015620005b55784890151620005b1601f891682620004a5565b8355505b6001600288020188555050505b505050505050565b7f4e487b7100000000000000000000000000000000000000000000000000000000600052601160045260246000fd5b60008160011c9050919050565b6000808291508390505b6001851115620006585780860481111562000630576200062f620005ca565b5b6001851615620006405780820291505b80810290506200065085620005f9565b945062000610565b94509492505050565b60008262000673576001905062000746565b8162000683576000905062000746565b81600181146200069c5760028114620006a757620006dd565b600191505062000746565b60ff841115620006bc57620006bb620005ca565b5b8360020a915084821115620006d657620006d5620005ca565b5b5062000746565b5060208310610133831016604e8410600b8410161715620007175782820a905083811115620007115762000710620005ca565b5b62000746565b62000726848484600162000606565b9250905081840481111562000740576200073f620005ca565b5b81810290505b9392505050565b600060ff82169050919050565b600062000767826200038f565b915062000774836200074d565b9250620007a37fffffffffffffffffffffffffffffffffffffffffffffffffffffffffffffffff848462000661565b905092915050565b6000620007b8826200038f565b9150620007c5836200038f565b9250828202620007d5816200038f565b91508282048414831517620007ef57620007ee620005ca565b5b5092915050565b600082825260208201905092915050565b7f45524332303a206d696e7420746f20746865207a65726f206164647265737300600082015250565b60006200083f601f83620007f6565b91506200084c8262000807565b602082019050919050565b60006020820190508181036000830152620008728162000830565b9050919050565b600062000886826200038f565b915062000893836200038f565b9250828201905080821115620008ae57620008ad620005ca565b5b92915050565b620008bf816200038f565b82525050565b6000602082019050620008dc6000830184620008b4565b92915050565b61184a80620008f26000396000f3fe6080604052600436106100c25760003560e01c806370a082311161007f578063a9059cbb11610059578063a9059cbb146102a4578063d46eb119146102e1578063dd62ed3e146102eb578063de0e9a3e14610328576100c2565b806370a08231146101ff57806395d89b411461023c578063a457c2d714610267576100c2565b806306fdde03146100c7578063095ea7b3146100f257806318160ddd1461012f57806323b872dd1461015a578063313ce5671461019757806339509351146101c2575b600080fd5b3480156100d357600080fd5b506100dc610351565b6040516100e99190610f6a565b60405180910390f35b3480156100fe57600080fd5b5061011960048036038101906101149190611025565b6103e3565b6040516101269190611080565b60405180910390f35b34801561013b57600080fd5b50610144610406565b60405161015191906110aa565b60405180910390f35b34801561016657600080fd5b50610181600480360381019061017c91906110c5565b610410565b60405161018e9190611080565b60405180910390f35b3480156101a357600080fd5b506101ac61043f565b6040516101b99190611134565b60405180910390f35b3480156101ce57600080fd5b506101e960048036038101906101e49190611025565b610448565b6040516101f69190611080565b60405180910390f35b34801561020b57600080fd5b506102266004803603810190610221919061114f565b61047f565b60405161023391906110aa565b60405180910390f35b34801561024857600080fd5b506102516104c7565b60405161025e9190610f6a565b60405180910390f35b34801561027357600080fd5b5061028e60048036038101906102899190611025565b610559565b60405161029b9190611080565b60405180910390f35b3480156102b057600080fd5b506102cb60048036038101906102c69190611025565b6105d0565b6040516102d89190611080565b60405180910390f35b6102e96105f3565b005b3480156102f757600080fd5b50610312600480360381019061030d919061117c565b6105ff565b60405161031f91906110aa565b60405180910390f35b34801561033457600080fd5b5061034f600480360381019061034a91906111bc565b610686565b005b60606003805461036090611218565b80601f016020809104026020016040519081016040528092919081815260200182805461038c90611218565b80156103d95780601f106103ae576101008083540402835291602001916103d9565b820191906000526020600020905b8154815290600101906020018083116103bc57829003601f168201915b5050505050905090565b6000806103ee6106da565b90506103fb8185856106e2565b600191505092915050565b6000600254905090565b60008061041b6106da565b90506104288582856108ab565b610433858585610937565b60019150509392505050565b60006012905090565b6000806104536106da565b905061047481858561046585896105ff565b61046f9190611278565b6106e2565b600191505092915050565b60008060008373ffffffffffffffffffffffffffffffffffffffff1673ffffffffffffffffffffffffffffffffffffffff168152602001908152602001600020549050919050565b6060600480546104d690611218565b80601f016020809104026020016040519081016040528092919081815260200182805461050290611218565b801561054f5780601f106105245761010080835404028352916020019161054f565b820191906000526020600020905b81548152906001019060200180831161053257829003601f168201915b5050505050905090565b6000806105646106da565b9050600061057282866105ff565b9050838110156105b7576040517f08c379a00000000000000000000000000000000000000000000000000000000081526004016105ae9061131e565b60405180910390fd5b6105c482868684036106e2565b60019250505092915050565b6000806105db6106da565b90506105e8818585610937565b600191505092915050565b6105fd3334610bad565b565b6000600160008473ffffffffffffffffffffffffffffffffffffffff1673ffffffffffffffffffffffffffffffffffffffff16815260200190815260200160002060008373ffffffffffffffffffffffffffffffffffffffff1673ffffffffffffffffffffffffffffffffffffffff16815260200190815260200160002054905092915050565b6106903382610d03565b3373ffffffffffffffffffffffffffffffffffffffff166108fc829081150290604051600060405180830381858888f193505050501580156106d6573d6000803e3d6000fd5b5050565b600033905090565b600073ffffffffffffffffffffffffffffffffffffffff168373ffffffffffffffffffffffffffffffffffffffff1603610751576040517f08c379a0000000000000000000000000000000000000000000000000000000008152600401610748906113b0565b60405180910390fd5b600073ffffffffffffffffffffffffffffffffffffffff168273ffffffffffffffffffffffffffffffffffffffff16036107c0576040517f08c379a00000000000000000000000000000000000000000000000000000000081526004016107b790611442565b60405180910390fd5b80600160008573ffffffffffffffffffffffffffffffffffffffff1673ffffffffffffffffffffffffffffffffffffffff16815260200190815260200160002060008473ffffffffffffffffffffffffffffffffffffffff1673ffffffffffffffffffffffffffffffffffffffff168152602001908152602001600020819055508173ffffffffffffffffffffffffffffffffffffffff168373ffffffffffffffffffffffffffffffffffffffff167f8c5be1e5ebec7d5bd14f71427d1e84f3dd0314c0f7b2291e5b200ac8c7c3b9258360405161089e91906110aa565b60405180910390a3505050565b60006108b784846105ff565b90507fffffffffffffffffffffffffffffffffffffffffffffffffffffffffffffffff81146109315781811015610923576040517f08c379a000000000000000000000000000000000000000000000000000000000815260040161091a906114ae565b60405180910390fd5b61093084848484036106e2565b5b50505050565b600073ffffffffffffffffffffffffffffffffffffffff168373ffffffffffffffffffffffffffffffffffffffff16036109a6576040517f08c379a000000000000000000000000000000000000000000000000000000000815260040161099d90611540565b60405180910390fd5b600073ffffffffffffffffffffffffffffffffffffffff168273ffffffffffffffffffffffffffffffffffffffff1603610a15576040517f08c379a0000000000000000000000000000000000000000000000000000000008152600401610a0c906115d2565b60405180910390fd5b610a20838383610ed0565b60008060008573ffffffffffffffffffffffffffffffffffffffff1673ffffffffffffffffffffffffffffffffffffffff16815260200190815260200160002054905081811015610aa6576040517f08c379a0000000000000000000000000000000000000000000000000000000008152600401610a9d90611664565b60405180910390fd5b8181036000808673ffffffffffffffffffffffffffffffffffffffff1673ffffffffffffffffffffffffffffffffffffffff16815260200190815260200160002081905550816000808573ffffffffffffffffffffffffffffffffffffffff1673ffffffffffffffffffffffffffffffffffffffff168152602001908152602001600020600082825401925050819055508273ffffffffffffffffffffffffffffffffffffffff168473ffffffffffffffffffffffffffffffffffffffff167fddf252ad1be2c89b69c2b068fc378daa952ba7f163c4a11628f55a4df523b3ef84604051610b9491906110aa565b60405180910390a3610ba7848484610ed5565b50505050565b600073ffffffffffffffffffffffffffffffffffffffff168273ffffffffffffffffffffffffffffffffffffffff1603610c1c576040517f08c379a0000000000000000000000000000000000000000000000000000000008152600401610c13906116d0565b60405180910390fd5b610c2860008383610ed0565b8060026000828254610c3a9190611278565b92505081905550806000808473ffffffffffffffffffffffffffffffffffffffff1673ffffffffffffffffffffffffffffffffffffffff168152602001908152602001600020600082825401925050819055508173ffffffffffffffffffffffffffffffffffffffff16600073ffffffffffffffffffffffffffffffffffffffff167fddf252ad1be2c89b69c2b068fc378daa952ba7f163c4a11628f55a4df523b3ef83604051610ceb91906110aa565b60405180910390a3610cff60008383610ed5565b5050565b600073ffffffffffffffffffffffffffffffffffffffff168273ffffffffffffffffffffffffffffffffffffffff1603610d72576040517f08c379a0000000000000000000000000000000000000000000000000000000008152600401610d6990611762565b60405180910390fd5b610d7e82600083610ed0565b60008060008473ffffffffffffffffffffffffffffffffffffffff1673ffffffffffffffffffffffffffffffffffffffff16815260200190815260200160002054905081811015610e04576040517f08c379a0000000000000000000000000000000000000000000000000000000008152600401610dfb906117f4565b60405180910390fd5b8181036000808573ffffffffffffffffffffffffffffffffffffffff1673ffffffffffffffffffffffffffffffffffffffff1681526020019081526020016000208190555081600260008282540392505081905550600073ffffffffffffffffffffffffffffffffffffffff168373ffffffffffffffffffffffffffffffffffffffff167fddf252ad1be2c89b69c2b068fc378daa952ba7f163c4a11628f55a4df523b3ef84604051610eb791906110aa565b60405180910390a3610ecb83600084610ed5565b505050565b505050565b505050565b600081519050919050565b600082825260208201905092915050565b60005b83811015610f14578082015181840152602081019050610ef9565b60008484015250505050565b6000601f19601f8301169050919050565b6000610f3c82610eda565b610f468185610ee5565b9350610f56818560208601610ef6565b610f5f81610f20565b840191505092915050565b60006020820190508181036000830152610f848184610f31565b905092915050565b600080fd5b600073ffffffffffffffffffffffffffffffffffffffff82169050919050565b6000610fbc82610f91565b9050919050565b610fcc81610fb1565b8114610fd757600080fd5b50565b600081359050610fe981610fc3565b92915050565b6000819050919050565b61100281610fef565b811461100d57600080fd5b50565b60008135905061101f81610ff9565b92915050565b6000806040838503121561103c5761103b610f8c565b5b600061104a85828601610fda565b925050602061105b85828601611010565b9150509250929050565b60008115159050919050565b61107a81611065565b82525050565b60006020820190506110956000830184611071565b92915050565b6110a481610fef565b82525050565b60006020820190506110bf600083018461109b565b92915050565b6000806000606084860312156110de576110dd610f8c565b5b60006110ec86828701610fda565b93505060206110fd86828701610fda565b925050604061110e86828701611010565b9150509250925092565b600060ff82169050919050565b61112e81611118565b82525050565b60006020820190506111496000830184611125565b92915050565b60006020828403121561116557611164610f8c565b5b600061117384828501610fda565b91505092915050565b6000806040838503121561119357611192610f8c565b5b60006111a185828601610fda565b92505060206111b285828601610fda565b9150509250929050565b6000602082840312156111d2576111d1610f8c565b5b60006111e084828501611010565b91505092915050565b7f4e487b7100000000000000000000000000000000000000000000000000000000600052602260045260246000fd5b6000600282049050600182168061123057607f821691505b602082108103611243576112426111e9565b5b50919050565b7f4e487b7100000000000000000000000000000000000000000000000000000000600052601160045260246000fd5b600061128382610fef565b915061128e83610fef565b92508282019050808211156112a6576112a5611249565b5b92915050565b7f45524332303a2064656372656173656420616c6c6f77616e63652062656c6f7760008201527f207a65726f000000000000000000000000000000000000000000000000000000602082015250565b6000611308602583610ee5565b9150611313826112ac565b604082019050919050565b60006020820190508181036000830152611337816112fb565b9050919050565b7f45524332303a20617070726f76652066726f6d20746865207a65726f2061646460008201527f7265737300000000000000000000000000000000000000000000000000000000602082015250565b600061139a602483610ee5565b91506113a58261133e565b604082019050919050565b600060208201905081810360008301526113c98161138d565b9050919050565b7f45524332303a20617070726f766520746f20746865207a65726f20616464726560008201527f7373000000000000000000000000000000000000000000000000000000000000602082015250565b600061142c602283610ee5565b9150611437826113d0565b604082019050919050565b6000602082019050818103600083015261145b8161141f565b9050919050565b7f45524332303a20696e73756666696369656e7420616c6c6f77616e6365000000600082015250565b6000611498601d83610ee5565b91506114a382611462565b602082019050919050565b600060208201905081810360008301526114c78161148b565b9050919050565b7f45524332303a207472616e736665722066726f6d20746865207a65726f20616460008201527f6472657373000000000000000000000000000000000000000000000000000000602082015250565b600061152a602583610ee5565b9150611535826114ce565b604082019050919050565b600060208201905081810360008301526115598161151d565b9050919050565b7f45524332303a207472616e7366657220746f20746865207a65726f206164647260008201527f6573730000000000000000000000000000000000000000000000000000000000602082015250565b60006115bc602383610ee5565b91506115c782611560565b604082019050919050565b600060208201905081810360008301526115eb816115af565b9050919050565b7f45524332303a207472616e7366657220616d6f756e742065786365656473206260008201527f616c616e63650000000000000000000000000000000000000000000000000000602082015250565b600061164e602683610ee5565b9150611659826115f2565b604082019050919050565b6000602082019050818103600083015261167d81611641565b9050919050565b7f45524332303a206d696e7420746f20746865207a65726f206164647265737300600082015250565b60006116ba601f83610ee5565b91506116c582611684565b602082019050919050565b600060208201905081810360008301526116e9816116ad565b9050919050565b7f45524332303a206275726e2066726f6d20746865207a65726f2061646472657360008201527f7300000000000000000000000000000000000000000000000000000000000000602082015250565b600061174c602183610ee5565b9150611757826116f0565b604082019050919050565b6000602082019050818103600083015261177b8161173f565b9050919050565b7f45524332303a206275726e20616d6f756e7420657863656564732062616c616e60008201527f6365000000000000000000000000000000000000000000000000000000000000602082015250565b60006117de602283610ee5565b91506117e982611782565b604082019050919050565b6000602082019050818103600083015261180d816117d1565b905091905056fea26469706673582212206c8490dfc35f56c93a2b1c34347ef79c0e9cecac71420a4e5de1024b9dcda7cd64736f6c63430008130033",
  "immutableReferences": {},
  "source": "// SPDX-License-Identifier: MIT\r\n\r\n// Declare solidity compiler version\r\npragma solidity ^0.8.10;\r\n\r\n// Import ERC20 from OpenZeppelin library\r\nimport \"@openzeppelin/contracts/token/ERC20/ERC20.sol\";\r\n\r\n// Declare contract name and inherit from ERC20\r\ncontract ChiToken is ERC20 {\r\n    constructor() ERC20(\"ChiToken\", \"CHI\") {\r\n        // Mint 1 million CHI tokens and send to the contract deployer\r\n        _mint(msg.sender, 1000000 * 10 ** decimals());\r\n    }\r\n    \r\n    // Wrap ETH to CHI tokens\r\n    function wrap() public payable {\r\n        // Mint CHI tokens to the caller equivalent to the amount of ETH received\r\n        _mint(msg.sender, msg.value);\r\n    }\r\n    \r\n    // Unwrap CHI tokens to ETH\r\n    function unwrap(uint256 amount) public {\r\n        // Burn CHI tokens from the caller equivalent to the amount specified\r\n        _burn(msg.sender, amount);\r\n         // Transfer ETH to the caller equivalent to the amount of CHI tokens burned\r\n        payable(msg.sender).transfer(amount);\r\n    }\r\n}\r\n",
  "sourcePath": "C:\\Users\\Felabs\\Desktop\\HackTrustHackathon\\contracts\\ChiToken.sol",
  "compiler": {
    "name": "solc",
    "version": "0.8.19+commit.7dd6d404.Emscripten.clang"
  },
  "schemaVersion": "3.4.13",
  "updatedAt": "2023-04-29T15:07:46.888Z",
  "devdoc": {
    "events": {
      "Approval(address,address,uint256)": {
        "details": "Emitted when the allowance of a `spender` for an `owner` is set by a call to {approve}. `value` is the new allowance."
      },
      "Transfer(address,address,uint256)": {
        "details": "Emitted when `value` tokens are moved from one account (`from`) to another (`to`). Note that `value` may be zero."
      }
    },
    "kind": "dev",
    "methods": {
      "allowance(address,address)": {
        "details": "See {IERC20-allowance}."
      },
      "approve(address,uint256)": {
        "details": "See {IERC20-approve}. NOTE: If `amount` is the maximum `uint256`, the allowance is not updated on `transferFrom`. This is semantically equivalent to an infinite approval. Requirements: - `spender` cannot be the zero address."
      },
      "balanceOf(address)": {
        "details": "See {IERC20-balanceOf}."
      },
      "decimals()": {
        "details": "Returns the number of decimals used to get its user representation. For example, if `decimals` equals `2`, a balance of `505` tokens should be displayed to a user as `5.05` (`505 / 10 ** 2`). Tokens usually opt for a value of 18, imitating the relationship between Ether and Wei. This is the value {ERC20} uses, unless this function is overridden; NOTE: This information is only used for _display_ purposes: it in no way affects any of the arithmetic of the contract, including {IERC20-balanceOf} and {IERC20-transfer}."
      },
      "decreaseAllowance(address,uint256)": {
        "details": "Atomically decreases the allowance granted to `spender` by the caller. This is an alternative to {approve} that can be used as a mitigation for problems described in {IERC20-approve}. Emits an {Approval} event indicating the updated allowance. Requirements: - `spender` cannot be the zero address. - `spender` must have allowance for the caller of at least `subtractedValue`."
      },
      "increaseAllowance(address,uint256)": {
        "details": "Atomically increases the allowance granted to `spender` by the caller. This is an alternative to {approve} that can be used as a mitigation for problems described in {IERC20-approve}. Emits an {Approval} event indicating the updated allowance. Requirements: - `spender` cannot be the zero address."
      },
      "name()": {
        "details": "Returns the name of the token."
      },
      "symbol()": {
        "details": "Returns the symbol of the token, usually a shorter version of the name."
      },
      "totalSupply()": {
        "details": "See {IERC20-totalSupply}."
      },
      "transfer(address,uint256)": {
        "details": "See {IERC20-transfer}. Requirements: - `to` cannot be the zero address. - the caller must have a balance of at least `amount`."
      },
      "transferFrom(address,address,uint256)": {
        "details": "See {IERC20-transferFrom}. Emits an {Approval} event indicating the updated allowance. This is not required by the EIP. See the note at the beginning of {ERC20}. NOTE: Does not update the allowance if the current allowance is the maximum `uint256`. Requirements: - `from` and `to` cannot be the zero address. - `from` must have a balance of at least `amount`. - the caller must have allowance for ``from``'s tokens of at least `amount`."
      }
    },
    "version": 1
  },
  "userdoc": {
    "kind": "user",
    "methods": {},
    "version": 1
  }
}