{
  "contractName": "CommodityToken",
  "abi": [
    {
      "inputs": [
        {
          "internalType": "string",
          "name": "name",
          "type": "string"
        },
        {
          "internalType": "string",
          "name": "symbol",
          "type": "string"
        }
      ],
      "stateMutability": "nonpayable",
      "type": "constructor"
    },
    {
      "anonymous": false,
      "inputs": [
        {
          "indexed": true,
          "internalType": "address",
          "name": "owner",
          "type": "address"
        },
        {
          "indexed": true,
          "internalType": "address",
          "name": "approved",
          "type": "address"
        },
        {
          "indexed": true,
          "internalType": "uint256",
          "name": "tokenId",
          "type": "uint256"
        }
      ],
      "name": "Approval",
      "type": "event"
    },
    {
      "anonymous": false,
      "inputs": [
        {
          "indexed": true,
          "internalType": "address",
          "name": "owner",
          "type": "address"
        },
        {
          "indexed": true,
          "internalType": "address",
          "name": "operator",
          "type": "address"
        },
        {
          "indexed": false,
          "internalType": "bool",
          "name": "approved",
          "type": "bool"
        }
      ],
      "name": "ApprovalForAll",
      "type": "event"
    },
    {
      "anonymous": false,
      "inputs": [
        {
          "indexed": false,
          "internalType": "uint256",
          "name": "tokenId",
          "type": "uint256"
        },
        {
          "indexed": false,
          "internalType": "uint256",
          "name": "processNumber",
          "type": "uint256"
        }
      ],
      "name": "CommodityMoved",
      "type": "event"
    },
    {
      "anonymous": false,
      "inputs": [
        {
          "indexed": true,
          "internalType": "address",
          "name": "from",
          "type": "address"
        },
        {
          "indexed": true,
          "internalType": "address",
          "name": "to",
          "type": "address"
        },
        {
          "indexed": true,
          "internalType": "uint256",
          "name": "tokenId",
          "type": "uint256"
        }
      ],
      "name": "Transfer",
      "type": "event"
    },
    {
      "inputs": [
        {
          "internalType": "address",
          "name": "to",
          "type": "address"
        },
        {
          "internalType": "uint256",
          "name": "tokenId",
          "type": "uint256"
        }
      ],
      "name": "approve",
      "outputs": [],
      "stateMutability": "nonpayable",
      "type": "function"
    },
    {
      "inputs": [
        {
          "internalType": "address",
          "name": "owner",
          "type": "address"
        }
      ],
      "name": "balanceOf",
      "outputs": [
        {
          "internalType": "uint256",
          "name": "",
          "type": "uint256"
        }
      ],
      "stateMutability": "view",
      "type": "function"
    },
    {
      "inputs": [
        {
          "internalType": "uint256",
          "name": "tokenId",
          "type": "uint256"
        }
      ],
      "name": "getApproved",
      "outputs": [
        {
          "internalType": "address",
          "name": "",
          "type": "address"
        }
      ],
      "stateMutability": "view",
      "type": "function"
    },
    {
      "inputs": [
        {
          "internalType": "address",
          "name": "owner",
          "type": "address"
        },
        {
          "internalType": "address",
          "name": "operator",
          "type": "address"
        }
      ],
      "name": "isApprovedForAll",
      "outputs": [
        {
          "internalType": "bool",
          "name": "",
          "type": "bool"
        }
      ],
      "stateMutability": "view",
      "type": "function"
    },
    {
      "inputs": [],
      "name": "name",
      "outputs": [
        {
          "internalType": "string",
          "name": "",
          "type": "string"
        }
      ],
      "stateMutability": "view",
      "type": "function"
    },
    {
      "inputs": [
        {
          "internalType": "uint256",
          "name": "tokenId",
          "type": "uint256"
        }
      ],
      "name": "ownerOf",
      "outputs": [
        {
          "internalType": "address",
          "name": "",
          "type": "address"
        }
      ],
      "stateMutability": "view",
      "type": "function"
    },
    {
      "inputs": [
        {
          "internalType": "uint256",
          "name": "",
          "type": "uint256"
        }
      ],
      "name": "processes",
      "outputs": [
        {
          "internalType": "uint256",
          "name": "",
          "type": "uint256"
        }
      ],
      "stateMutability": "view",
      "type": "function"
    },
    {
      "inputs": [
        {
          "internalType": "address",
          "name": "from",
          "type": "address"
        },
        {
          "internalType": "address",
          "name": "to",
          "type": "address"
        },
        {
          "internalType": "uint256",
          "name": "tokenId",
          "type": "uint256"
        }
      ],
      "name": "safeTransferFrom",
      "outputs": [],
      "stateMutability": "nonpayable",
      "type": "function"
    },
    {
      "inputs": [
        {
          "internalType": "address",
          "name": "from",
          "type": "address"
        },
        {
          "internalType": "address",
          "name": "to",
          "type": "address"
        },
        {
          "internalType": "uint256",
          "name": "tokenId",
          "type": "uint256"
        },
        {
          "internalType": "bytes",
          "name": "data",
          "type": "bytes"
        }
      ],
      "name": "safeTransferFrom",
      "outputs": [],
      "stateMutability": "nonpayable",
      "type": "function"
    },
    {
      "inputs": [
        {
          "internalType": "address",
          "name": "operator",
          "type": "address"
        },
        {
          "internalType": "bool",
          "name": "approved",
          "type": "bool"
        }
      ],
      "name": "setApprovalForAll",
      "outputs": [],
      "stateMutability": "nonpayable",
      "type": "function"
    },
    {
      "inputs": [
        {
          "internalType": "bytes4",
          "name": "interfaceId",
          "type": "bytes4"
        }
      ],
      "name": "supportsInterface",
      "outputs": [
        {
          "internalType": "bool",
          "name": "",
          "type": "bool"
        }
      ],
      "stateMutability": "view",
      "type": "function"
    },
    {
      "inputs": [],
      "name": "symbol",
      "outputs": [
        {
          "internalType": "string",
          "name": "",
          "type": "string"
        }
      ],
      "stateMutability": "view",
      "type": "function"
    },
    {
      "inputs": [
        {
          "internalType": "uint256",
          "name": "tokenId",
          "type": "uint256"
        }
      ],
      "name": "tokenURI",
      "outputs": [
        {
          "internalType": "string",
          "name": "",
          "type": "string"
        }
      ],
      "stateMutability": "view",
      "type": "function"
    },
    {
      "inputs": [
        {
          "internalType": "address",
          "name": "from",
          "type": "address"
        },
        {
          "internalType": "address",
          "name": "to",
          "type": "address"
        },
        {
          "internalType": "uint256",
          "name": "tokenId",
          "type": "uint256"
        }
      ],
      "name": "transferFrom",
      "outputs": [],
      "stateMutability": "nonpayable",
      "type": "function"
    },
    {
      "inputs": [
        {
          "internalType": "uint256",
          "name": "tokenId",
          "type": "uint256"
        }
      ],
      "name": "mint",
      "outputs": [],
      "stateMutability": "nonpayable",
      "type": "function"
    },
    {
      "inputs": [
        {
          "internalType": "uint256",
          "name": "tokenId",
          "type": "uint256"
        }
      ],
      "name": "moveToNextProcess",
      "outputs": [],
      "stateMutability": "nonpayable",
      "type": "function"
    }
  ],
  "bytecode": "0x60806040523480156200001157600080fd5b5060405162002ead38038062002ead8339818101604052810190620000379190620001fa565b818181600090816200004a9190620004ca565b5080600190816200005c9190620004ca565b5050505050620005b1565b6000604051905090565b600080fd5b600080fd5b600080fd5b600080fd5b6000601f19601f8301169050919050565b7f4e487b7100000000000000000000000000000000000000000000000000000000600052604160045260246000fd5b620000d08262000085565b810181811067ffffffffffffffff82111715620000f257620000f162000096565b5b80604052505050565b60006200010762000067565b9050620001158282620000c5565b919050565b600067ffffffffffffffff82111562000138576200013762000096565b5b620001438262000085565b9050602081019050919050565b60005b838110156200017057808201518184015260208101905062000153565b60008484015250505050565b6000620001936200018d846200011a565b620000fb565b905082815260208101848484011115620001b257620001b162000080565b5b620001bf84828562000150565b509392505050565b600082601f830112620001df57620001de6200007b565b5b8151620001f18482602086016200017c565b91505092915050565b6000806040838503121562000214576200021362000071565b5b600083015167ffffffffffffffff81111562000235576200023462000076565b5b6200024385828601620001c7565b925050602083015167ffffffffffffffff81111562000267576200026662000076565b5b6200027585828601620001c7565b9150509250929050565b600081519050919050565b7f4e487b7100000000000000000000000000000000000000000000000000000000600052602260045260246000fd5b60006002820490506001821680620002d257607f821691505b602082108103620002e857620002e76200028a565b5b50919050565b60008190508160005260206000209050919050565b60006020601f8301049050919050565b600082821b905092915050565b600060088302620003527fffffffffffffffffffffffffffffffffffffffffffffffffffffffffffffffff8262000313565b6200035e868362000313565b95508019841693508086168417925050509392505050565b6000819050919050565b6000819050919050565b6000620003ab620003a56200039f8462000376565b62000380565b62000376565b9050919050565b6000819050919050565b620003c7836200038a565b620003df620003d682620003b2565b84845462000320565b825550505050565b600090565b620003f6620003e7565b62000403818484620003bc565b505050565b5b818110156200042b576200041f600082620003ec565b60018101905062000409565b5050565b601f8211156200047a576200044481620002ee565b6200044f8462000303565b810160208510156200045f578190505b620004776200046e8562000303565b83018262000408565b50505b505050565b600082821c905092915050565b60006200049f600019846008026200047f565b1980831691505092915050565b6000620004ba83836200048c565b9150826002028217905092915050565b620004d5826200027f565b67ffffffffffffffff811115620004f157620004f062000096565b5b620004fd8254620002b9565b6200050a8282856200042f565b600060209050601f8311600181146200054257600084156200052d578287015190505b620005398582620004ac565b865550620005a9565b601f1984166200055286620002ee565b60005b828110156200057c5784890151825560018201915060208501945060208101905062000555565b868310156200059c578489015162000598601f8916826200048c565b8355505b6001600288020188555050505b505050505050565b6128ec80620005c16000396000f3fe608060405234801561001057600080fd5b50600436106101005760003560e01c806370a0823111610097578063b88d4fde11610066578063b88d4fde146102bd578063c87b56dd146102d9578063ce00bf9714610309578063e985e9c51461032557610100565b806370a082311461023757806395d89b4114610267578063a0712d6814610285578063a22cb465146102a157610100565b806323b872dd116100d357806323b872dd1461019f57806342842e0e146101bb578063579e51c7146101d75780636352211e1461020757610100565b806301ffc9a71461010557806306fdde0314610135578063081812fc14610153578063095ea7b314610183575b600080fd5b61011f600480360381019061011a91906119de565b610355565b60405161012c9190611a26565b60405180910390f35b61013d610437565b60405161014a9190611ad1565b60405180910390f35b61016d60048036038101906101689190611b29565b6104c9565b60405161017a9190611b97565b60405180910390f35b61019d60048036038101906101989190611bde565b61050f565b005b6101b960048036038101906101b49190611c1e565b610626565b005b6101d560048036038101906101d09190611c1e565b610686565b005b6101f160048036038101906101ec9190611b29565b6106a6565b6040516101fe9190611c80565b60405180910390f35b610221600480360381019061021c9190611b29565b6106be565b60405161022e9190611b97565b60405180910390f35b610251600480360381019061024c9190611c9b565b610744565b60405161025e9190611c80565b60405180910390f35b61026f6107fb565b60405161027c9190611ad1565b60405180910390f35b61029f600480360381019061029a9190611b29565b61088d565b005b6102bb60048036038101906102b69190611cf4565b6108fc565b005b6102d760048036038101906102d29190611e69565b610912565b005b6102f360048036038101906102ee9190611b29565b610974565b6040516103009190611ad1565b60405180910390f35b610323600480360381019061031e9190611b29565b6109dc565b005b61033f600480360381019061033a9190611eec565b610b10565b60405161034c9190611a26565b60405180910390f35b60007f80ac58cd000000000000000000000000000000000000000000000000000000007bffffffffffffffffffffffffffffffffffffffffffffffffffffffff1916827bffffffffffffffffffffffffffffffffffffffffffffffffffffffff1916148061042057507f5b5e139f000000000000000000000000000000000000000000000000000000007bffffffffffffffffffffffffffffffffffffffffffffffffffffffff1916827bffffffffffffffffffffffffffffffffffffffffffffffffffffffff1916145b80610430575061042f82610ba4565b5b9050919050565b60606000805461044690611f5b565b80601f016020809104026020016040519081016040528092919081815260200182805461047290611f5b565b80156104bf5780601f10610494576101008083540402835291602001916104bf565b820191906000526020600020905b8154815290600101906020018083116104a257829003601f168201915b5050505050905090565b60006104d482610c0e565b6004600083815260200190815260200160002060009054906101000a900473ffffffffffffffffffffffffffffffffffffffff169050919050565b600061051a826106be565b90508073ffffffffffffffffffffffffffffffffffffffff168373ffffffffffffffffffffffffffffffffffffffff160361058a576040517f08c379a000000000000000000000000000000000000000000000000000000000815260040161058190611ffe565b60405180910390fd5b8073ffffffffffffffffffffffffffffffffffffffff166105a9610c59565b73ffffffffffffffffffffffffffffffffffffffff1614806105d857506105d7816105d2610c59565b610b10565b5b610617576040517f08c379a000000000000000000000000000000000000000000000000000000000815260040161060e90612090565b60405180910390fd5b6106218383610c61565b505050565b610637610631610c59565b82610d1a565b610676576040517f08c379a000000000000000000000000000000000000000000000000000000000815260040161066d90612122565b60405180910390fd5b610681838383610daf565b505050565b6106a183838360405180602001604052806000815250610912565b505050565b60066020528060005260406000206000915090505481565b6000806106ca836110a8565b9050600073ffffffffffffffffffffffffffffffffffffffff168173ffffffffffffffffffffffffffffffffffffffff160361073b576040517f08c379a00000000000000000000000000000000000000000000000000000000081526004016107329061218e565b60405180910390fd5b80915050919050565b60008073ffffffffffffffffffffffffffffffffffffffff168273ffffffffffffffffffffffffffffffffffffffff16036107b4576040517f08c379a00000000000000000000000000000000000000000000000000000000081526004016107ab90612220565b60405180910390fd5b600360008373ffffffffffffffffffffffffffffffffffffffff1673ffffffffffffffffffffffffffffffffffffffff168152602001908152602001600020549050919050565b60606001805461080a90611f5b565b80601f016020809104026020016040519081016040528092919081815260200182805461083690611f5b565b80156108835780601f1061085857610100808354040283529160200191610883565b820191906000526020600020905b81548152906001019060200180831161086657829003601f168201915b5050505050905090565b610896816110e5565b156108d6576040517f08c379a00000000000000000000000000000000000000000000000000000000081526004016108cd9061228c565b60405180910390fd5b6108e03382611126565b6001600660008381526020019081526020016000208190555050565b61090e610907610c59565b8383611144565b5050565b61092361091d610c59565b83610d1a565b610962576040517f08c379a000000000000000000000000000000000000000000000000000000000815260040161095990612122565b60405180910390fd5b61096e848484846112b0565b50505050565b606061097f82610c0e565b600061098961130c565b905060008151116109a957604051806020016040528060008152506109d4565b806109b384611323565b6040516020016109c49291906122e8565b6040516020818303038152906040525b915050919050565b3373ffffffffffffffffffffffffffffffffffffffff166109fc826106be565b73ffffffffffffffffffffffffffffffffffffffff1614610a52576040517f08c379a0000000000000000000000000000000000000000000000000000000008152600401610a4990612358565b60405180910390fd5b600060066000838152602001908152602001600020549050600c8110610aad576040517f08c379a0000000000000000000000000000000000000000000000000000000008152600401610aa4906123ea565b60405180910390fd5b8080610ab890612439565b9150508060066000848152602001908152602001600020819055507fef2223a6fd0f4adfbe3eb60920a926b6b6f3238e9d82f15747d3da9fd6e30a858282604051610b04929190612481565b60405180910390a15050565b6000600560008473ffffffffffffffffffffffffffffffffffffffff1673ffffffffffffffffffffffffffffffffffffffff16815260200190815260200160002060008373ffffffffffffffffffffffffffffffffffffffff1673ffffffffffffffffffffffffffffffffffffffff16815260200190815260200160002060009054906101000a900460ff16905092915050565b60007f01ffc9a7000000000000000000000000000000000000000000000000000000007bffffffffffffffffffffffffffffffffffffffffffffffffffffffff1916827bffffffffffffffffffffffffffffffffffffffffffffffffffffffff1916149050919050565b610c17816110e5565b610c56576040517f08c379a0000000000000000000000000000000000000000000000000000000008152600401610c4d9061218e565b60405180910390fd5b50565b600033905090565b816004600083815260200190815260200160002060006101000a81548173ffffffffffffffffffffffffffffffffffffffff021916908373ffffffffffffffffffffffffffffffffffffffff160217905550808273ffffffffffffffffffffffffffffffffffffffff16610cd4836106be565b73ffffffffffffffffffffffffffffffffffffffff167f8c5be1e5ebec7d5bd14f71427d1e84f3dd0314c0f7b2291e5b200ac8c7c3b92560405160405180910390a45050565b600080610d26836106be565b90508073ffffffffffffffffffffffffffffffffffffffff168473ffffffffffffffffffffffffffffffffffffffff161480610d685750610d678185610b10565b5b80610da657508373ffffffffffffffffffffffffffffffffffffffff16610d8e846104c9565b73ffffffffffffffffffffffffffffffffffffffff16145b91505092915050565b8273ffffffffffffffffffffffffffffffffffffffff16610dcf826106be565b73ffffffffffffffffffffffffffffffffffffffff1614610e25576040517f08c379a0000000000000000000000000000000000000000000000000000000008152600401610e1c9061251c565b60405180910390fd5b600073ffffffffffffffffffffffffffffffffffffffff168273ffffffffffffffffffffffffffffffffffffffff1603610e94576040517f08c379a0000000000000000000000000000000000000000000000000000000008152600401610e8b906125ae565b60405180910390fd5b610ea183838360016113f1565b8273ffffffffffffffffffffffffffffffffffffffff16610ec1826106be565b73ffffffffffffffffffffffffffffffffffffffff1614610f17576040517f08c379a0000000000000000000000000000000000000000000000000000000008152600401610f0e9061251c565b60405180910390fd5b6004600082815260200190815260200160002060006101000a81549073ffffffffffffffffffffffffffffffffffffffff02191690556001600360008573ffffffffffffffffffffffffffffffffffffffff1673ffffffffffffffffffffffffffffffffffffffff168152602001908152602001600020600082825403925050819055506001600360008473ffffffffffffffffffffffffffffffffffffffff1673ffffffffffffffffffffffffffffffffffffffff16815260200190815260200160002060008282540192505081905550816002600083815260200190815260200160002060006101000a81548173ffffffffffffffffffffffffffffffffffffffff021916908373ffffffffffffffffffffffffffffffffffffffff160217905550808273ffffffffffffffffffffffffffffffffffffffff168473ffffffffffffffffffffffffffffffffffffffff167fddf252ad1be2c89b69c2b068fc378daa952ba7f163c4a11628f55a4df523b3ef60405160405180910390a46110a383838360016113f7565b505050565b60006002600083815260200190815260200160002060009054906101000a900473ffffffffffffffffffffffffffffffffffffffff169050919050565b60008073ffffffffffffffffffffffffffffffffffffffff16611107836110a8565b73ffffffffffffffffffffffffffffffffffffffff1614159050919050565b6111408282604051806020016040528060008152506113fd565b5050565b8173ffffffffffffffffffffffffffffffffffffffff168373ffffffffffffffffffffffffffffffffffffffff16036111b2576040517f08c379a00000000000000000000000000000000000000000000000000000000081526004016111a99061261a565b60405180910390fd5b80600560008573ffffffffffffffffffffffffffffffffffffffff1673ffffffffffffffffffffffffffffffffffffffff16815260200190815260200160002060008473ffffffffffffffffffffffffffffffffffffffff1673ffffffffffffffffffffffffffffffffffffffff16815260200190815260200160002060006101000a81548160ff0219169083151502179055508173ffffffffffffffffffffffffffffffffffffffff168373ffffffffffffffffffffffffffffffffffffffff167f17307eab39ab6107e8899845ad3d59bd9653f200f220920489ca2b5937696c31836040516112a39190611a26565b60405180910390a3505050565b6112bb848484610daf565b6112c784848484611458565b611306576040517f08c379a00000000000000000000000000000000000000000000000000000000081526004016112fd906126ac565b60405180910390fd5b50505050565b606060405180602001604052806000815250905090565b606060006001611332846115df565b01905060008167ffffffffffffffff81111561135157611350611d3e565b5b6040519080825280601f01601f1916602001820160405280156113835781602001600182028036833780820191505090505b509050600082602001820190505b6001156113e6578080600190039150507f3031323334353637383961626364656600000000000000000000000000000000600a86061a8153600a85816113da576113d96126cc565b5b04945060008503611391575b819350505050919050565b50505050565b50505050565b6114078383611732565b6114146000848484611458565b611453576040517f08c379a000000000000000000000000000000000000000000000000000000000815260040161144a906126ac565b60405180910390fd5b505050565b60006114798473ffffffffffffffffffffffffffffffffffffffff1661194f565b156115d2578373ffffffffffffffffffffffffffffffffffffffff1663150b7a026114a2610c59565b8786866040518563ffffffff1660e01b81526004016114c49493929190612750565b6020604051808303816000875af192505050801561150057506040513d601f19601f820116820180604052508101906114fd91906127b1565b60015b611582573d8060008114611530576040519150601f19603f3d011682016040523d82523d6000602084013e611535565b606091505b50600081510361157a576040517f08c379a0000000000000000000000000000000000000000000000000000000008152600401611571906126ac565b60405180910390fd5b805181602001fd5b63150b7a0260e01b7bffffffffffffffffffffffffffffffffffffffffffffffffffffffff1916817bffffffffffffffffffffffffffffffffffffffffffffffffffffffff1916149150506115d7565b600190505b949350505050565b600080600090507a184f03e93ff9f4daa797ed6e38ed64bf6a1f010000000000000000831061163d577a184f03e93ff9f4daa797ed6e38ed64bf6a1f0100000000000000008381611633576116326126cc565b5b0492506040810190505b6d04ee2d6d415b85acef8100000000831061167a576d04ee2d6d415b85acef810000000083816116705761166f6126cc565b5b0492506020810190505b662386f26fc1000083106116a957662386f26fc10000838161169f5761169e6126cc565b5b0492506010810190505b6305f5e10083106116d2576305f5e10083816116c8576116c76126cc565b5b0492506008810190505b61271083106116f75761271083816116ed576116ec6126cc565b5b0492506004810190505b6064831061171a57606483816117105761170f6126cc565b5b0492506002810190505b600a8310611729576001810190505b80915050919050565b600073ffffffffffffffffffffffffffffffffffffffff168273ffffffffffffffffffffffffffffffffffffffff16036117a1576040517f08c379a00000000000000000000000000000000000000000000000000000000081526004016117989061282a565b60405180910390fd5b6117aa816110e5565b156117ea576040517f08c379a00000000000000000000000000000000000000000000000000000000081526004016117e190612896565b60405180910390fd5b6117f86000838360016113f1565b611801816110e5565b15611841576040517f08c379a000000000000000000000000000000000000000000000000000000000815260040161183890612896565b60405180910390fd5b6001600360008473ffffffffffffffffffffffffffffffffffffffff1673ffffffffffffffffffffffffffffffffffffffff16815260200190815260200160002060008282540192505081905550816002600083815260200190815260200160002060006101000a81548173ffffffffffffffffffffffffffffffffffffffff021916908373ffffffffffffffffffffffffffffffffffffffff160217905550808273ffffffffffffffffffffffffffffffffffffffff16600073ffffffffffffffffffffffffffffffffffffffff167fddf252ad1be2c89b69c2b068fc378daa952ba7f163c4a11628f55a4df523b3ef60405160405180910390a461194b6000838360016113f7565b5050565b6000808273ffffffffffffffffffffffffffffffffffffffff163b119050919050565b6000604051905090565b600080fd5b600080fd5b60007fffffffff0000000000000000000000000000000000000000000000000000000082169050919050565b6119bb81611986565b81146119c657600080fd5b50565b6000813590506119d8816119b2565b92915050565b6000602082840312156119f4576119f361197c565b5b6000611a02848285016119c9565b91505092915050565b60008115159050919050565b611a2081611a0b565b82525050565b6000602082019050611a3b6000830184611a17565b92915050565b600081519050919050565b600082825260208201905092915050565b60005b83811015611a7b578082015181840152602081019050611a60565b60008484015250505050565b6000601f19601f8301169050919050565b6000611aa382611a41565b611aad8185611a4c565b9350611abd818560208601611a5d565b611ac681611a87565b840191505092915050565b60006020820190508181036000830152611aeb8184611a98565b905092915050565b6000819050919050565b611b0681611af3565b8114611b1157600080fd5b50565b600081359050611b2381611afd565b92915050565b600060208284031215611b3f57611b3e61197c565b5b6000611b4d84828501611b14565b91505092915050565b600073ffffffffffffffffffffffffffffffffffffffff82169050919050565b6000611b8182611b56565b9050919050565b611b9181611b76565b82525050565b6000602082019050611bac6000830184611b88565b92915050565b611bbb81611b76565b8114611bc657600080fd5b50565b600081359050611bd881611bb2565b92915050565b60008060408385031215611bf557611bf461197c565b5b6000611c0385828601611bc9565b9250506020611c1485828601611b14565b9150509250929050565b600080600060608486031215611c3757611c3661197c565b5b6000611c4586828701611bc9565b9350506020611c5686828701611bc9565b9250506040611c6786828701611b14565b9150509250925092565b611c7a81611af3565b82525050565b6000602082019050611c956000830184611c71565b92915050565b600060208284031215611cb157611cb061197c565b5b6000611cbf84828501611bc9565b91505092915050565b611cd181611a0b565b8114611cdc57600080fd5b50565b600081359050611cee81611cc8565b92915050565b60008060408385031215611d0b57611d0a61197c565b5b6000611d1985828601611bc9565b9250506020611d2a85828601611cdf565b9150509250929050565b600080fd5b600080fd5b7f4e487b7100000000000000000000000000000000000000000000000000000000600052604160045260246000fd5b611d7682611a87565b810181811067ffffffffffffffff82111715611d9557611d94611d3e565b5b80604052505050565b6000611da8611972565b9050611db48282611d6d565b919050565b600067ffffffffffffffff821115611dd457611dd3611d3e565b5b611ddd82611a87565b9050602081019050919050565b82818337600083830152505050565b6000611e0c611e0784611db9565b611d9e565b905082815260208101848484011115611e2857611e27611d39565b5b611e33848285611dea565b509392505050565b600082601f830112611e5057611e4f611d34565b5b8135611e60848260208601611df9565b91505092915050565b60008060008060808587031215611e8357611e8261197c565b5b6000611e9187828801611bc9565b9450506020611ea287828801611bc9565b9350506040611eb387828801611b14565b925050606085013567ffffffffffffffff811115611ed457611ed3611981565b5b611ee087828801611e3b565b91505092959194509250565b60008060408385031215611f0357611f0261197c565b5b6000611f1185828601611bc9565b9250506020611f2285828601611bc9565b9150509250929050565b7f4e487b7100000000000000000000000000000000000000000000000000000000600052602260045260246000fd5b60006002820490506001821680611f7357607f821691505b602082108103611f8657611f85611f2c565b5b50919050565b7f4552433732313a20617070726f76616c20746f2063757272656e74206f776e6560008201527f7200000000000000000000000000000000000000000000000000000000000000602082015250565b6000611fe8602183611a4c565b9150611ff382611f8c565b604082019050919050565b6000602082019050818103600083015261201781611fdb565b9050919050565b7f4552433732313a20617070726f76652063616c6c6572206973206e6f7420746f60008201527f6b656e206f776e6572206f7220617070726f76656420666f7220616c6c000000602082015250565b600061207a603d83611a4c565b91506120858261201e565b604082019050919050565b600060208201905081810360008301526120a98161206d565b9050919050565b7f4552433732313a2063616c6c6572206973206e6f7420746f6b656e206f776e6560008201527f72206f7220617070726f76656400000000000000000000000000000000000000602082015250565b600061210c602d83611a4c565b9150612117826120b0565b604082019050919050565b6000602082019050818103600083015261213b816120ff565b9050919050565b7f4552433732313a20696e76616c696420746f6b656e2049440000000000000000600082015250565b6000612178601883611a4c565b915061218382612142565b602082019050919050565b600060208201905081810360008301526121a78161216b565b9050919050565b7f4552433732313a2061646472657373207a65726f206973206e6f74206120766160008201527f6c6964206f776e65720000000000000000000000000000000000000000000000602082015250565b600061220a602983611a4c565b9150612215826121ae565b604082019050919050565b60006020820190508181036000830152612239816121fd565b9050919050565b7f546f6b656e20616c726561647920657869737473000000000000000000000000600082015250565b6000612276601483611a4c565b915061228182612240565b602082019050919050565b600060208201905081810360008301526122a581612269565b9050919050565b600081905092915050565b60006122c282611a41565b6122cc81856122ac565b93506122dc818560208601611a5d565b80840191505092915050565b60006122f482856122b7565b915061230082846122b7565b91508190509392505050565b7f4e6f7420746f6b656e206f776e65720000000000000000000000000000000000600082015250565b6000612342600f83611a4c565b915061234d8261230c565b602082019050919050565b6000602082019050818103600083015261237181612335565b9050919050565b7f546f6b656e20616c726561647920636f6d706c6574656420616c6c2070726f6360008201527f6573736573000000000000000000000000000000000000000000000000000000602082015250565b60006123d4602583611a4c565b91506123df82612378565b604082019050919050565b60006020820190508181036000830152612403816123c7565b9050919050565b7f4e487b7100000000000000000000000000000000000000000000000000000000600052601160045260246000fd5b600061244482611af3565b91507fffffffffffffffffffffffffffffffffffffffffffffffffffffffffffffffff82036124765761247561240a565b5b600182019050919050565b60006040820190506124966000830185611c71565b6124a36020830184611c71565b9392505050565b7f4552433732313a207472616e736665722066726f6d20696e636f72726563742060008201527f6f776e6572000000000000000000000000000000000000000000000000000000602082015250565b6000612506602583611a4c565b9150612511826124aa565b604082019050919050565b60006020820190508181036000830152612535816124f9565b9050919050565b7f4552433732313a207472616e7366657220746f20746865207a65726f2061646460008201527f7265737300000000000000000000000000000000000000000000000000000000602082015250565b6000612598602483611a4c565b91506125a38261253c565b604082019050919050565b600060208201905081810360008301526125c78161258b565b9050919050565b7f4552433732313a20617070726f766520746f2063616c6c657200000000000000600082015250565b6000612604601983611a4c565b915061260f826125ce565b602082019050919050565b60006020820190508181036000830152612633816125f7565b9050919050565b7f4552433732313a207472616e7366657220746f206e6f6e20455243373231526560008201527f63656976657220696d706c656d656e7465720000000000000000000000000000602082015250565b6000612696603283611a4c565b91506126a18261263a565b604082019050919050565b600060208201905081810360008301526126c581612689565b9050919050565b7f4e487b7100000000000000000000000000000000000000000000000000000000600052601260045260246000fd5b600081519050919050565b600082825260208201905092915050565b6000612722826126fb565b61272c8185612706565b935061273c818560208601611a5d565b61274581611a87565b840191505092915050565b60006080820190506127656000830187611b88565b6127726020830186611b88565b61277f6040830185611c71565b81810360608301526127918184612717565b905095945050505050565b6000815190506127ab816119b2565b92915050565b6000602082840312156127c7576127c661197c565b5b60006127d58482850161279c565b91505092915050565b7f4552433732313a206d696e7420746f20746865207a65726f2061646472657373600082015250565b6000612814602083611a4c565b915061281f826127de565b602082019050919050565b6000602082019050818103600083015261284381612807565b9050919050565b7f4552433732313a20746f6b656e20616c7265616479206d696e74656400000000600082015250565b6000612880601c83611a4c565b915061288b8261284a565b602082019050919050565b600060208201905081810360008301526128af81612873565b905091905056fea2646970667358221220952887521498399c8a54eaac39990b8e63ac2e68582f6a14ec274fa8f67f228164736f6c63430008130033",
  "immutableReferences": {},
  "source": "pragma solidity ^0.8.0;\r\n\r\nimport \"@openzeppelin/contracts/token/ERC721/ERC721.sol\";\r\n\r\ncontract CommodityToken is ERC721 {\r\n    // Mapping of token ID to current process number\r\n    mapping (uint256 => uint256) public processes;\r\n    \r\n    // Event emitted when a token is moved to a new process\r\n    event CommodityMoved(uint256 tokenId, uint256 processNumber);\r\n\r\n    constructor(string memory name, string memory symbol) ERC721(name, symbol) {}\r\n\r\n    // Function to mint a new token and start it at process 1\r\n    function mint(uint256 tokenId) public {\r\n        require(!_exists(tokenId), \"Token already exists\");\r\n        _safeMint(msg.sender, tokenId);\r\n        processes[tokenId] = 1;\r\n    }\r\n\r\n    // Function to move a token to the next process\r\n    function moveToNextProcess(uint256 tokenId) public {\r\n        require(ownerOf(tokenId) == msg.sender, \"Not token owner\");\r\n        uint256 currentProcess = processes[tokenId];\r\n        require(currentProcess < 12, \"Token already completed all processes\");\r\n        currentProcess++;\r\n        processes[tokenId] = currentProcess;\r\n        emit CommodityMoved(tokenId, currentProcess);\r\n    }\r\n}\r\n",
  "sourcePath": "C:\\Users\\Felabs\\Desktop\\HackTrustHackathon\\contracts\\CommodityToken.sol",
  "compiler": {
    "name": "solc",
    "version": "0.8.19+commit.7dd6d404.Emscripten.clang"
  },
  "schemaVersion": "3.4.13",
  "updatedAt": "2023-04-29T22:43:32.583Z",
  "devdoc": {
    "events": {
      "Approval(address,address,uint256)": {
        "details": "Emitted when `owner` enables `approved` to manage the `tokenId` token."
      },
      "ApprovalForAll(address,address,bool)": {
        "details": "Emitted when `owner` enables or disables (`approved`) `operator` to manage all of its assets."
      },
      "Transfer(address,address,uint256)": {
        "details": "Emitted when `tokenId` token is transferred from `from` to `to`."
      }
    },
    "kind": "dev",
    "methods": {
      "approve(address,uint256)": {
        "details": "See {IERC721-approve}."
      },
      "balanceOf(address)": {
        "details": "See {IERC721-balanceOf}."
      },
      "getApproved(uint256)": {
        "details": "See {IERC721-getApproved}."
      },
      "isApprovedForAll(address,address)": {
        "details": "See {IERC721-isApprovedForAll}."
      },
      "name()": {
        "details": "See {IERC721Metadata-name}."
      },
      "ownerOf(uint256)": {
        "details": "See {IERC721-ownerOf}."
      },
      "safeTransferFrom(address,address,uint256)": {
        "details": "See {IERC721-safeTransferFrom}."
      },
      "safeTransferFrom(address,address,uint256,bytes)": {
        "details": "See {IERC721-safeTransferFrom}."
      },
      "setApprovalForAll(address,bool)": {
        "details": "See {IERC721-setApprovalForAll}."
      },
      "supportsInterface(bytes4)": {
        "details": "See {IERC165-supportsInterface}."
      },
      "symbol()": {
        "details": "See {IERC721Metadata-symbol}."
      },
      "tokenURI(uint256)": {
        "details": "See {IERC721Metadata-tokenURI}."
      },
      "transferFrom(address,address,uint256)": {
        "details": "See {IERC721-transferFrom}."
      }
    },
    "version": 1
  },
  "userdoc": {
    "kind": "user",
    "methods": {},
    "version": 1
  }
}