{
  "contractName": "FinancialTrackingSystem",
  "abi": [
    {
      "inputs": [
        {
          "internalType": "uint256",
          "name": "",
          "type": "uint256"
        }
      ],
      "name": "disbursedTransactions",
      "outputs": [
        {
          "internalType": "address",
          "name": "usaid",
          "type": "address"
        },
        {
          "internalType": "address",
          "name": "receiver_org",
          "type": "address"
        },
        {
          "internalType": "uint256",
          "name": "amount",
          "type": "uint256"
        },
        {
          "internalType": "string",
          "name": "organization_purpose",
          "type": "string"
        },
        {
          "internalType": "uint256",
          "name": "timestamp",
          "type": "uint256"
        }
      ],
      "stateMutability": "view",
      "type": "function",
      "constant": true
    },
    {
      "inputs": [
        {
          "internalType": "uint256",
          "name": "",
          "type": "uint256"
        }
      ],
      "name": "transactions",
      "outputs": [
        {
          "internalType": "address",
          "name": "donor",
          "type": "address"
        },
        {
          "internalType": "address",
          "name": "usaid",
          "type": "address"
        },
        {
          "internalType": "uint256",
          "name": "amount",
          "type": "uint256"
        },
        {
          "internalType": "string",
          "name": "purpose",
          "type": "string"
        },
        {
          "internalType": "uint256",
          "name": "timestamp",
          "type": "uint256"
        }
      ],
      "stateMutability": "view",
      "type": "function",
      "constant": true
    },
    {
      "inputs": [
        {
          "internalType": "address",
          "name": "_donor",
          "type": "address"
        },
        {
          "internalType": "address",
          "name": "_usaid",
          "type": "address"
        },
        {
          "internalType": "uint256",
          "name": "_amount",
          "type": "uint256"
        },
        {
          "internalType": "string",
          "name": "_purpose",
          "type": "string"
        }
      ],
      "name": "createTransaction",
      "outputs": [],
      "stateMutability": "nonpayable",
      "type": "function"
    },
    {
      "inputs": [],
      "name": "getTransactions",
      "outputs": [
        {
          "components": [
            {
              "internalType": "address",
              "name": "donor",
              "type": "address"
            },
            {
              "internalType": "address",
              "name": "usaid",
              "type": "address"
            },
            {
              "internalType": "uint256",
              "name": "amount",
              "type": "uint256"
            },
            {
              "internalType": "string",
              "name": "purpose",
              "type": "string"
            },
            {
              "internalType": "uint256",
              "name": "timestamp",
              "type": "uint256"
            }
          ],
          "internalType": "struct FinancialTrackingSystem.Transaction[]",
          "name": "",
          "type": "tuple[]"
        }
      ],
      "stateMutability": "view",
      "type": "function",
      "constant": true
    },
    {
      "inputs": [
        {
          "internalType": "address",
          "name": "_donor",
          "type": "address"
        }
      ],
      "name": "getTransactionsByDonor",
      "outputs": [
        {
          "components": [
            {
              "internalType": "address",
              "name": "donor",
              "type": "address"
            },
            {
              "internalType": "address",
              "name": "usaid",
              "type": "address"
            },
            {
              "internalType": "uint256",
              "name": "amount",
              "type": "uint256"
            },
            {
              "internalType": "string",
              "name": "purpose",
              "type": "string"
            },
            {
              "internalType": "uint256",
              "name": "timestamp",
              "type": "uint256"
            }
          ],
          "internalType": "struct FinancialTrackingSystem.Transaction[]",
          "name": "",
          "type": "tuple[]"
        }
      ],
      "stateMutability": "view",
      "type": "function",
      "constant": true
    },
    {
      "inputs": [
        {
          "internalType": "address",
          "name": "_usaid",
          "type": "address"
        }
      ],
      "name": "getTransactionsByUSAID",
      "outputs": [
        {
          "components": [
            {
              "internalType": "address",
              "name": "donor",
              "type": "address"
            },
            {
              "internalType": "address",
              "name": "usaid",
              "type": "address"
            },
            {
              "internalType": "uint256",
              "name": "amount",
              "type": "uint256"
            },
            {
              "internalType": "string",
              "name": "purpose",
              "type": "string"
            },
            {
              "internalType": "uint256",
              "name": "timestamp",
              "type": "uint256"
            }
          ],
          "internalType": "struct FinancialTrackingSystem.Transaction[]",
          "name": "",
          "type": "tuple[]"
        }
      ],
      "stateMutability": "view",
      "type": "function",
      "constant": true
    },
    {
      "inputs": [
        {
          "internalType": "address",
          "name": "_usaid",
          "type": "address"
        },
        {
          "internalType": "address",
          "name": "_receiver_org",
          "type": "address"
        },
        {
          "internalType": "uint256",
          "name": "_amount",
          "type": "uint256"
        },
        {
          "internalType": "string",
          "name": "_organization_purpose",
          "type": "string"
        }
      ],
      "name": "createDisburseTransaction",
      "outputs": [],
      "stateMutability": "nonpayable",
      "type": "function"
    }
  ],
  "bytecode": "0x608060405234801561001057600080fd5b506119ca806100206000396000f3fe608060405234801561001057600080fd5b506004361061007d5760003560e01c806383920e901161005b57806383920e90146101025780638a388b35146101205780639ace38c21461013c578063be0f7caf146101705761007d565b80630c30d135146100825780634bec4a00146100b25780636d095184146100ce575b600080fd5b61009c60048036038101906100979190611070565b6101a0565b6040516100a9919061128d565b60405180910390f35b6100cc60048036038101906100c79190611410565b6104fa565b005b6100e860048036038101906100e39190611493565b610738565b6040516100f9959493929190611528565b60405180910390f35b61010a610846565b604051610117919061128d565b60405180910390f35b61013a60048036038101906101359190611410565b6109f7565b005b61015660048036038101906101519190611493565b610b3b565b604051610167959493929190611528565b60405180910390f35b61018a60048036038101906101859190611070565b610c49565b604051610197919061128d565b60405180910390f35b60606000805b60008054905081101561024d578373ffffffffffffffffffffffffffffffffffffffff16600082815481106101de576101dd611582565b5b906000526020600020906005020160010160009054906101000a900473ffffffffffffffffffffffffffffffffffffffff1673ffffffffffffffffffffffffffffffffffffffff160361023a578180610236906115e0565b9250505b8080610245906115e0565b9150506101a6565b5060008167ffffffffffffffff81111561026a576102696112e5565b5b6040519080825280602002602001820160405280156102a357816020015b610290610fa3565b8152602001906001900390816102885790505b5090506000805b6000805490508110156104ee578573ffffffffffffffffffffffffffffffffffffffff16600082815481106102e2576102e1611582565b5b906000526020600020906005020160010160009054906101000a900473ffffffffffffffffffffffffffffffffffffffff1673ffffffffffffffffffffffffffffffffffffffff16036104db576000818154811061034357610342611582565b5b90600052602060002090600502016040518060a00160405290816000820160009054906101000a900473ffffffffffffffffffffffffffffffffffffffff1673ffffffffffffffffffffffffffffffffffffffff1673ffffffffffffffffffffffffffffffffffffffff1681526020016001820160009054906101000a900473ffffffffffffffffffffffffffffffffffffffff1673ffffffffffffffffffffffffffffffffffffffff1673ffffffffffffffffffffffffffffffffffffffff1681526020016002820154815260200160038201805461042290611657565b80601f016020809104026020016040519081016040528092919081815260200182805461044e90611657565b801561049b5780601f106104705761010080835404028352916020019161049b565b820191906000526020600020905b81548152906001019060200180831161047e57829003601f168201915b505050505081526020016004820154815250508383815181106104c1576104c0611582565b5b602002602001018190525081806104d7906115e0565b9250505b80806104e6906115e0565b9150506102aa565b50819350505050919050565b6000735b38da6a701c568545dcfcb03fcb875f56beddc490508073ffffffffffffffffffffffffffffffffffffffff1663d46eb119846040518263ffffffff1660e01b81526004016000604051808303818588803b15801561055b57600080fd5b505af115801561056f573d6000803e3d6000fd5b50505050508073ffffffffffffffffffffffffffffffffffffffff1663a9059cbb85856040518363ffffffff1660e01b81526004016105af929190611688565b6020604051808303816000875af11580156105ce573d6000803e3d6000fd5b505050506040513d601f19601f820116820180604052508101906105f291906116e9565b5060006040518060a001604052808773ffffffffffffffffffffffffffffffffffffffff1681526020018673ffffffffffffffffffffffffffffffffffffffff168152602001858152602001848152602001428152509050600181908060018154018082558091505060019003906000526020600020906005020160009091909190915060008201518160000160006101000a81548173ffffffffffffffffffffffffffffffffffffffff021916908373ffffffffffffffffffffffffffffffffffffffff16021790555060208201518160010160006101000a81548173ffffffffffffffffffffffffffffffffffffffff021916908373ffffffffffffffffffffffffffffffffffffffff16021790555060408201518160020155606082015181600301908161072391906118c2565b50608082015181600401555050505050505050565b6001818154811061074857600080fd5b90600052602060002090600502016000915090508060000160009054906101000a900473ffffffffffffffffffffffffffffffffffffffff16908060010160009054906101000a900473ffffffffffffffffffffffffffffffffffffffff16908060020154908060030180546107bd90611657565b80601f01602080910402602001604051908101604052809291908181526020018280546107e990611657565b80156108365780601f1061080b57610100808354040283529160200191610836565b820191906000526020600020905b81548152906001019060200180831161081957829003601f168201915b5050505050908060040154905085565b60606000805480602002602001604051908101604052809291908181526020016000905b828210156109ee57838290600052602060002090600502016040518060a00160405290816000820160009054906101000a900473ffffffffffffffffffffffffffffffffffffffff1673ffffffffffffffffffffffffffffffffffffffff1673ffffffffffffffffffffffffffffffffffffffff1681526020016001820160009054906101000a900473ffffffffffffffffffffffffffffffffffffffff1673ffffffffffffffffffffffffffffffffffffffff1673ffffffffffffffffffffffffffffffffffffffff1681526020016002820154815260200160038201805461095390611657565b80601f016020809104026020016040519081016040528092919081815260200182805461097f90611657565b80156109cc5780601f106109a1576101008083540402835291602001916109cc565b820191906000526020600020905b8154815290600101906020018083116109af57829003601f168201915b505050505081526020016004820154815250508152602001906001019061086a565b50505050905090565b60006040518060a001604052808673ffffffffffffffffffffffffffffffffffffffff1681526020018573ffffffffffffffffffffffffffffffffffffffff168152602001848152602001838152602001428152509050600081908060018154018082558091505060019003906000526020600020906005020160009091909190915060008201518160000160006101000a81548173ffffffffffffffffffffffffffffffffffffffff021916908373ffffffffffffffffffffffffffffffffffffffff16021790555060208201518160010160006101000a81548173ffffffffffffffffffffffffffffffffffffffff021916908373ffffffffffffffffffffffffffffffffffffffff160217905550604082015181600201556060820151816003019081610b2791906118c2565b506080820151816004015550505050505050565b60008181548110610b4b57600080fd5b90600052602060002090600502016000915090508060000160009054906101000a900473ffffffffffffffffffffffffffffffffffffffff16908060010160009054906101000a900473ffffffffffffffffffffffffffffffffffffffff1690806002015490806003018054610bc090611657565b80601f0160208091040260200160405190810160405280929190818152602001828054610bec90611657565b8015610c395780601f10610c0e57610100808354040283529160200191610c39565b820191906000526020600020905b815481529060010190602001808311610c1c57829003601f168201915b5050505050908060040154905085565b60606000805b600080549050811015610cf6578373ffffffffffffffffffffffffffffffffffffffff1660008281548110610c8757610c86611582565b5b906000526020600020906005020160000160009054906101000a900473ffffffffffffffffffffffffffffffffffffffff1673ffffffffffffffffffffffffffffffffffffffff1603610ce3578180610cdf906115e0565b9250505b8080610cee906115e0565b915050610c4f565b5060008167ffffffffffffffff811115610d1357610d126112e5565b5b604051908082528060200260200182016040528015610d4c57816020015b610d39610fa3565b815260200190600190039081610d315790505b5090506000805b600080549050811015610f97578573ffffffffffffffffffffffffffffffffffffffff1660008281548110610d8b57610d8a611582565b5b906000526020600020906005020160000160009054906101000a900473ffffffffffffffffffffffffffffffffffffffff1673ffffffffffffffffffffffffffffffffffffffff1603610f845760008181548110610dec57610deb611582565b5b90600052602060002090600502016040518060a00160405290816000820160009054906101000a900473ffffffffffffffffffffffffffffffffffffffff1673ffffffffffffffffffffffffffffffffffffffff1673ffffffffffffffffffffffffffffffffffffffff1681526020016001820160009054906101000a900473ffffffffffffffffffffffffffffffffffffffff1673ffffffffffffffffffffffffffffffffffffffff1673ffffffffffffffffffffffffffffffffffffffff16815260200160028201548152602001600382018054610ecb90611657565b80601f0160208091040260200160405190810160405280929190818152602001828054610ef790611657565b8015610f445780601f10610f1957610100808354040283529160200191610f44565b820191906000526020600020905b815481529060010190602001808311610f2757829003601f168201915b50505050508152602001600482015481525050838381518110610f6a57610f69611582565b5b60200260200101819052508180610f80906115e0565b9250505b8080610f8f906115e0565b915050610d53565b50819350505050919050565b6040518060a00160405280600073ffffffffffffffffffffffffffffffffffffffff168152602001600073ffffffffffffffffffffffffffffffffffffffff1681526020016000815260200160608152602001600081525090565b6000604051905090565b600080fd5b600080fd5b600073ffffffffffffffffffffffffffffffffffffffff82169050919050565b600061103d82611012565b9050919050565b61104d81611032565b811461105857600080fd5b50565b60008135905061106a81611044565b92915050565b60006020828403121561108657611085611008565b5b60006110948482850161105b565b91505092915050565b600081519050919050565b600082825260208201905092915050565b6000819050602082019050919050565b6110d281611032565b82525050565b6000819050919050565b6110eb816110d8565b82525050565b600081519050919050565b600082825260208201905092915050565b60005b8381101561112b578082015181840152602081019050611110565b60008484015250505050565b6000601f19601f8301169050919050565b6000611153826110f1565b61115d81856110fc565b935061116d81856020860161110d565b61117681611137565b840191505092915050565b600060a08301600083015161119960008601826110c9565b5060208301516111ac60208601826110c9565b5060408301516111bf60408601826110e2565b50606083015184820360608601526111d78282611148565b91505060808301516111ec60808601826110e2565b508091505092915050565b60006112038383611181565b905092915050565b6000602082019050919050565b60006112238261109d565b61122d81856110a8565b93508360208202850161123f856110b9565b8060005b8581101561127b578484038952815161125c85826111f7565b94506112678361120b565b925060208a01995050600181019050611243565b50829750879550505050505092915050565b600060208201905081810360008301526112a78184611218565b905092915050565b6112b8816110d8565b81146112c357600080fd5b50565b6000813590506112d5816112af565b92915050565b600080fd5b600080fd5b7f4e487b7100000000000000000000000000000000000000000000000000000000600052604160045260246000fd5b61131d82611137565b810181811067ffffffffffffffff8211171561133c5761133b6112e5565b5b80604052505050565b600061134f610ffe565b905061135b8282611314565b919050565b600067ffffffffffffffff82111561137b5761137a6112e5565b5b61138482611137565b9050602081019050919050565b82818337600083830152505050565b60006113b36113ae84611360565b611345565b9050828152602081018484840111156113cf576113ce6112e0565b5b6113da848285611391565b509392505050565b600082601f8301126113f7576113f66112db565b5b81356114078482602086016113a0565b91505092915050565b6000806000806080858703121561142a57611429611008565b5b60006114388782880161105b565b94505060206114498782880161105b565b935050604061145a878288016112c6565b925050606085013567ffffffffffffffff81111561147b5761147a61100d565b5b611487878288016113e2565b91505092959194509250565b6000602082840312156114a9576114a8611008565b5b60006114b7848285016112c6565b91505092915050565b6114c981611032565b82525050565b6114d8816110d8565b82525050565b600082825260208201905092915050565b60006114fa826110f1565b61150481856114de565b935061151481856020860161110d565b61151d81611137565b840191505092915050565b600060a08201905061153d60008301886114c0565b61154a60208301876114c0565b61155760408301866114cf565b818103606083015261156981856114ef565b905061157860808301846114cf565b9695505050505050565b7f4e487b7100000000000000000000000000000000000000000000000000000000600052603260045260246000fd5b7f4e487b7100000000000000000000000000000000000000000000000000000000600052601160045260246000fd5b60006115eb826110d8565b91507fffffffffffffffffffffffffffffffffffffffffffffffffffffffffffffffff820361161d5761161c6115b1565b5b600182019050919050565b7f4e487b7100000000000000000000000000000000000000000000000000000000600052602260045260246000fd5b6000600282049050600182168061166f57607f821691505b60208210810361168257611681611628565b5b50919050565b600060408201905061169d60008301856114c0565b6116aa60208301846114cf565b9392505050565b60008115159050919050565b6116c6816116b1565b81146116d157600080fd5b50565b6000815190506116e3816116bd565b92915050565b6000602082840312156116ff576116fe611008565b5b600061170d848285016116d4565b91505092915050565b60008190508160005260206000209050919050565b60006020601f8301049050919050565b600082821b905092915050565b6000600883026117787fffffffffffffffffffffffffffffffffffffffffffffffffffffffffffffffff8261173b565b611782868361173b565b95508019841693508086168417925050509392505050565b6000819050919050565b60006117bf6117ba6117b5846110d8565b61179a565b6110d8565b9050919050565b6000819050919050565b6117d9836117a4565b6117ed6117e5826117c6565b848454611748565b825550505050565b600090565b6118026117f5565b61180d8184846117d0565b505050565b5b81811015611831576118266000826117fa565b600181019050611813565b5050565b601f8211156118765761184781611716565b6118508461172b565b8101602085101561185f578190505b61187361186b8561172b565b830182611812565b50505b505050565b600082821c905092915050565b60006118996000198460080261187b565b1980831691505092915050565b60006118b28383611888565b9150826002028217905092915050565b6118cb826110f1565b67ffffffffffffffff8111156118e4576118e36112e5565b5b6118ee8254611657565b6118f9828285611835565b600060209050601f83116001811461192c576000841561191a578287015190505b61192485826118a6565b86555061198c565b601f19841661193a86611716565b60005b828110156119625784890151825560018201915060208501945060208101905061193d565b8683101561197f578489015161197b601f891682611888565b8355505b6001600288020188555050505b50505050505056fea2646970667358221220b015e5ab1e3307ebf82ae3408edcbb57009694800bbef0c15f901f63de77300864736f6c63430008130033",
  "immutableReferences": {},
  "source": "// SPDX-License-Identifier: GPL-3.0\npragma solidity ^0.8.10;\n\nimport \"./ChiToken.sol\";\n\ncontract FinancialTrackingSystem {\n    // storing transaction details\n    struct Transaction {\n        address donor;\n        address usaid;\n        uint256 amount;\n        string purpose;\n        uint256 timestamp;\n    }\n\n    // storing disburse transaction details\n    struct DisburseTransaction {\n        address usaid;\n        address receiver_org;\n        uint256 amount;\n        string organization_purpose;\n        uint256 timestamp;\n    }\n\n    // array to store all the transactions\n    Transaction[] public transactions;\n\n    // array to store all the disburse transactions\n    DisburseTransaction[] public disbursedTransactions;\n\n    // creating new transactions\n    function createTransaction(address _donor, address _usaid, uint256 _amount, string memory _purpose) public {\n        Transaction memory newTransaction = Transaction({\n            donor: _donor,\n            usaid: _usaid,\n            amount: _amount,\n            purpose: _purpose,\n            timestamp: block.timestamp\n        });\n        transactions.push(newTransaction);\n    }\n\n    // retrieving all transactions\n    function getTransactions() public view returns (Transaction[] memory) {\n        return transactions;\n    }\n\n    // transactions by donor\n    function getTransactionsByDonor(address _donor) public view returns (Transaction[] memory) {\n        uint256 count = 0;\n        for (uint256 i = 0; i < transactions.length; i++) {\n            if (transactions[i].donor == _donor) {\n                count++;\n            }\n        }\n        Transaction[] memory result = new Transaction[](count);\n        uint256 index = 0;\n        for (uint256 i = 0; i < transactions.length; i++) {\n            if (transactions[i].donor == _donor) {\n                result[index] = transactions[i];\n                index++;\n            }\n        }\n        return result;\n    }\n\n    // retrieving all transactions by USAID\n    function getTransactionsByUSAID(address _usaid) public view returns (Transaction[] memory) {\n        uint256 count = 0;\n        for (uint256 i = 0; i < transactions.length; i++) {\n            if (transactions[i].usaid == _usaid) {\n                count++;\n            }\n        }\n        Transaction[] memory result = new Transaction[](count);\n        uint256 index = 0;\n        for (uint256 i = 0; i < transactions.length; i++) {\n            if (transactions[i].usaid == _usaid) {\n                result[index] = transactions[i];\n                index++;\n            }\n        }\n        return result;\n    }\n\n     function createDisburseTransaction(address _usaid, address _receiver_org, uint256 _amount, string memory _organization_purpose) public {\n        // create ChiToken instance\n        ChiToken chi = ChiToken(0x5B38Da6a701c568545dCfcB03FcB875f56beddC4); // Replace with the address of the ChiToken contract on your network\n        // wrap ETH to CHI tokens\n        chi.wrap{value: _amount}();\n        // transfer CHI tokens to the receiver organization\n        chi.transfer(_receiver_org, _amount);\n        // create the disburse transaction\n        DisburseTransaction memory newTransaction = DisburseTransaction({\n            usaid: _usaid,\n            receiver_org: _receiver_org,\n            amount: _amount,\n            organization_purpose: _organization_purpose,\n            timestamp: block.timestamp\n        });\n        disbursedTransactions.push(newTransaction);\n    }\n\n}\n",
  "sourcePath": "D:\\Repositories\\HackTrustHackathon\\contracts\\Fusion.sol",
  "compiler": {
    "name": "solc",
    "version": "0.8.19+commit.7dd6d404.Emscripten.clang"
  },
  "schemaVersion": "3.4.13",
  "updatedAt": "2023-04-29T19:55:30.508Z",
  "networkType": "ethereum",
  "devdoc": {
    "kind": "dev",
    "methods": {},
    "version": 1
  },
  "userdoc": {
    "kind": "user",
    "methods": {},
    "version": 1
  }
}