{
  "contractName": "FinancialTrackingSystem",
  "abi": [
    {
      "inputs": [],
      "stateMutability": "payable",
      "type": "constructor",
      "payable": true
    },
    {
      "anonymous": false,
      "inputs": [
        {
          "indexed": false,
          "internalType": "address",
          "name": "receiver_org",
          "type": "address"
        },
        {
          "indexed": false,
          "internalType": "uint256",
          "name": "amount",
          "type": "uint256"
        },
        {
          "indexed": false,
          "internalType": "string",
          "name": "organization_purpose",
          "type": "string"
        },
        {
          "indexed": false,
          "internalType": "uint256",
          "name": "timestamp",
          "type": "uint256"
        }
      ],
      "name": "DisbursementAddedSuccess",
      "type": "event"
    },
    {
      "anonymous": false,
      "inputs": [
        {
          "indexed": false,
          "internalType": "address",
          "name": "donor",
          "type": "address"
        },
        {
          "indexed": false,
          "internalType": "uint256",
          "name": "amount",
          "type": "uint256"
        },
        {
          "indexed": false,
          "internalType": "string",
          "name": "purpose",
          "type": "string"
        },
        {
          "indexed": false,
          "internalType": "uint256",
          "name": "timestamp",
          "type": "uint256"
        }
      ],
      "name": "TransactionAddedSuccess",
      "type": "event"
    },
    {
      "inputs": [
        {
          "internalType": "uint256",
          "name": "",
          "type": "uint256"
        }
      ],
      "name": "disbursedTransactions",
      "outputs": [
        {
          "internalType": "address",
          "name": "receiver_org",
          "type": "address"
        },
        {
          "internalType": "uint256",
          "name": "amount",
          "type": "uint256"
        },
        {
          "internalType": "string",
          "name": "organization_purpose",
          "type": "string"
        },
        {
          "internalType": "uint256",
          "name": "timestamp",
          "type": "uint256"
        }
      ],
      "stateMutability": "view",
      "type": "function",
      "constant": true
    },
    {
      "inputs": [
        {
          "internalType": "uint256",
          "name": "",
          "type": "uint256"
        }
      ],
      "name": "transactions",
      "outputs": [
        {
          "internalType": "address",
          "name": "donor",
          "type": "address"
        },
        {
          "internalType": "uint256",
          "name": "amount",
          "type": "uint256"
        },
        {
          "internalType": "string",
          "name": "purpose",
          "type": "string"
        },
        {
          "internalType": "uint256",
          "name": "timestamp",
          "type": "uint256"
        }
      ],
      "stateMutability": "view",
      "type": "function",
      "constant": true
    },
    {
      "inputs": [
        {
          "internalType": "string",
          "name": "_purpose",
          "type": "string"
        }
      ],
      "name": "createTransaction",
      "outputs": [],
      "stateMutability": "payable",
      "type": "function",
      "payable": true
    },
    {
      "inputs": [],
      "name": "getTransactions",
      "outputs": [
        {
          "components": [
            {
              "internalType": "address",
              "name": "donor",
              "type": "address"
            },
            {
              "internalType": "uint256",
              "name": "amount",
              "type": "uint256"
            },
            {
              "internalType": "string",
              "name": "purpose",
              "type": "string"
            },
            {
              "internalType": "uint256",
              "name": "timestamp",
              "type": "uint256"
            }
          ],
          "internalType": "struct FinancialTrackingSystem.Transaction[]",
          "name": "",
          "type": "tuple[]"
        }
      ],
      "stateMutability": "view",
      "type": "function",
      "constant": true
    },
    {
      "inputs": [
        {
          "internalType": "address",
          "name": "_donor",
          "type": "address"
        }
      ],
      "name": "getTransactionsByDonor",
      "outputs": [
        {
          "components": [
            {
              "internalType": "address",
              "name": "donor",
              "type": "address"
            },
            {
              "internalType": "uint256",
              "name": "amount",
              "type": "uint256"
            },
            {
              "internalType": "string",
              "name": "purpose",
              "type": "string"
            },
            {
              "internalType": "uint256",
              "name": "timestamp",
              "type": "uint256"
            }
          ],
          "internalType": "struct FinancialTrackingSystem.Transaction[]",
          "name": "",
          "type": "tuple[]"
        }
      ],
      "stateMutability": "view",
      "type": "function",
      "constant": true
    },
    {
      "inputs": [
        {
          "internalType": "address payable",
          "name": "_receiver_org",
          "type": "address"
        },
        {
          "internalType": "string",
          "name": "_organization_purpose",
          "type": "string"
        },
        {
          "internalType": "uint256",
          "name": "_amount",
          "type": "uint256"
        }
      ],
      "name": "createDisburseTransaction",
      "outputs": [],
      "stateMutability": "nonpayable",
      "type": "function"
    },
    {
      "inputs": [],
      "name": "getDisburseTransactions",
      "outputs": [
        {
          "components": [
            {
              "internalType": "address",
              "name": "receiver_org",
              "type": "address"
            },
            {
              "internalType": "uint256",
              "name": "amount",
              "type": "uint256"
            },
            {
              "internalType": "string",
              "name": "organization_purpose",
              "type": "string"
            },
            {
              "internalType": "uint256",
              "name": "timestamp",
              "type": "uint256"
            }
          ],
          "internalType": "struct FinancialTrackingSystem.DisburseTransaction[]",
          "name": "",
          "type": "tuple[]"
        }
      ],
      "stateMutability": "view",
      "type": "function",
      "constant": true
    },
    {
      "inputs": [
        {
          "internalType": "address",
          "name": "_receiver_org",
          "type": "address"
        }
      ],
      "name": "getTransactionsByReceiver_orgORG",
      "outputs": [
        {
          "components": [
            {
              "internalType": "address",
              "name": "receiver_org",
              "type": "address"
            },
            {
              "internalType": "uint256",
              "name": "amount",
              "type": "uint256"
            },
            {
              "internalType": "string",
              "name": "organization_purpose",
              "type": "string"
            },
            {
              "internalType": "uint256",
              "name": "timestamp",
              "type": "uint256"
            }
          ],
          "internalType": "struct FinancialTrackingSystem.DisburseTransaction[]",
          "name": "",
          "type": "tuple[]"
        }
      ],
      "stateMutability": "view",
      "type": "function",
      "constant": true
    }
  ],
  "bytecode": "0x6080604052662386f26fc10000600055611beb8061001e6000396000f3fe60806040526004361061007b5760003560e01c8063954d1de91161004e578063954d1de9146101305780639ace38c21461016d578063be0f7caf146101ad578063de74bfd4146101ea5761007b565b80634d9e78d4146100805780636d0951841461009c5780637a763ffe146100dc57806383920e9014610105575b600080fd5b61009a6004803603810190610095919061113b565b610215565b005b3480156100a857600080fd5b506100c360048036038101906100be91906111ba565b610373565b6040516100d394939291906112b6565b60405180910390f35b3480156100e857600080fd5b5061010360048036038101906100fe9190611340565b61045b565b005b34801561011157600080fd5b5061011a6105bf565b604051610127919061153c565b60405180910390f35b34801561013c57600080fd5b506101576004803603810190610152919061158a565b61071a565b60405161016491906116dc565b60405180910390f35b34801561017957600080fd5b50610194600480360381019061018f91906111ba565b610a1e565b6040516101a494939291906112b6565b60405180910390f35b3480156101b957600080fd5b506101d460048036038101906101cf919061158a565b610b06565b6040516101e1919061153c565b60405180910390f35b3480156101f657600080fd5b506101ff610e0a565b60405161020c91906116dc565b60405180910390f35b60003411610258576040517f08c379a000000000000000000000000000000000000000000000000000000000815260040161024f90611770565b60405180910390fd5b600060405180608001604052803373ffffffffffffffffffffffffffffffffffffffff168152602001348152602001838152602001428152509050600181908060018154018082558091505060019003906000526020600020906004020160009091909190915060008201518160000160006101000a81548173ffffffffffffffffffffffffffffffffffffffff021916908373ffffffffffffffffffffffffffffffffffffffff160217905550602082015181600101556040820151816002019081610325919061199c565b506060820151816003015550507fd758e3b12ded0137ad5f548903a0f69b8ad32c096d67bd15a235f0788baa3b323334844260405161036794939291906112b6565b60405180910390a15050565b6002818154811061038357600080fd5b90600052602060002090600402016000915090508060000160009054906101000a900473ffffffffffffffffffffffffffffffffffffffff16908060010154908060020180546103d2906117bf565b80601f01602080910402602001604051908101604052809291908181526020018280546103fe906117bf565b801561044b5780601f106104205761010080835404028352916020019161044b565b820191906000526020600020905b81548152906001019060200180831161042e57829003601f168201915b5050505050908060030154905084565b600060405180608001604052808573ffffffffffffffffffffffffffffffffffffffff168152602001838152602001848152602001428152509050600281908060018154018082558091505060019003906000526020600020906004020160009091909190915060008201518160000160006101000a81548173ffffffffffffffffffffffffffffffffffffffff021916908373ffffffffffffffffffffffffffffffffffffffff160217905550602082015181600101556040820151816002019081610528919061199c565b506060820151816003015550508373ffffffffffffffffffffffffffffffffffffffff166108fc839081150290604051600060405180830381858888f1935050505015801561057b573d6000803e3d6000fd5b507f5c28bec1cc7273d5f5ebbd2376b366040f0dc1ace7cacf4ea5f8e12d3d869e91848385426040516105b19493929190611ac3565b60405180910390a150505050565b60606001805480602002602001604051908101604052809291908181526020016000905b8282101561071157838290600052602060002090600402016040518060800160405290816000820160009054906101000a900473ffffffffffffffffffffffffffffffffffffffff1673ffffffffffffffffffffffffffffffffffffffff1673ffffffffffffffffffffffffffffffffffffffff16815260200160018201548152602001600282018054610676906117bf565b80601f01602080910402602001604051908101604052809291908181526020018280546106a2906117bf565b80156106ef5780601f106106c4576101008083540402835291602001916106ef565b820191906000526020600020905b8154815290600101906020018083116106d257829003601f168201915b50505050508152602001600382015481525050815260200190600101906105e3565b50505050905090565b60606000805b6002805490508110156107c7578373ffffffffffffffffffffffffffffffffffffffff166002828154811061075857610757611b0f565b5b906000526020600020906004020160000160009054906101000a900473ffffffffffffffffffffffffffffffffffffffff1673ffffffffffffffffffffffffffffffffffffffff16036107b45781806107b090611b6d565b9250505b80806107bf90611b6d565b915050610720565b5060008167ffffffffffffffff8111156107e4576107e3611010565b5b60405190808252806020026020018201604052801561081d57816020015b61080a610f65565b8152602001906001900390816108025790505b5090506000805b600280549050811015610a12578573ffffffffffffffffffffffffffffffffffffffff166002828154811061085c5761085b611b0f565b5b906000526020600020906004020160000160009054906101000a900473ffffffffffffffffffffffffffffffffffffffff1673ffffffffffffffffffffffffffffffffffffffff16036109ff57600281815481106108bd576108bc611b0f565b5b90600052602060002090600402016040518060800160405290816000820160009054906101000a900473ffffffffffffffffffffffffffffffffffffffff1673ffffffffffffffffffffffffffffffffffffffff1673ffffffffffffffffffffffffffffffffffffffff16815260200160018201548152602001600282018054610946906117bf565b80601f0160208091040260200160405190810160405280929190818152602001828054610972906117bf565b80156109bf5780601f10610994576101008083540402835291602001916109bf565b820191906000526020600020905b8154815290600101906020018083116109a257829003601f168201915b505050505081526020016003820154815250508383815181106109e5576109e4611b0f565b5b602002602001018190525081806109fb90611b6d565b9250505b8080610a0a90611b6d565b915050610824565b50819350505050919050565b60018181548110610a2e57600080fd5b90600052602060002090600402016000915090508060000160009054906101000a900473ffffffffffffffffffffffffffffffffffffffff1690806001015490806002018054610a7d906117bf565b80601f0160208091040260200160405190810160405280929190818152602001828054610aa9906117bf565b8015610af65780601f10610acb57610100808354040283529160200191610af6565b820191906000526020600020905b815481529060010190602001808311610ad957829003601f168201915b5050505050908060030154905084565b60606000805b600180549050811015610bb3578373ffffffffffffffffffffffffffffffffffffffff1660018281548110610b4457610b43611b0f565b5b906000526020600020906004020160000160009054906101000a900473ffffffffffffffffffffffffffffffffffffffff1673ffffffffffffffffffffffffffffffffffffffff1603610ba0578180610b9c90611b6d565b9250505b8080610bab90611b6d565b915050610b0c565b5060008167ffffffffffffffff811115610bd057610bcf611010565b5b604051908082528060200260200182016040528015610c0957816020015b610bf6610fa3565b815260200190600190039081610bee5790505b5090506000805b600180549050811015610dfe578573ffffffffffffffffffffffffffffffffffffffff1660018281548110610c4857610c47611b0f565b5b906000526020600020906004020160000160009054906101000a900473ffffffffffffffffffffffffffffffffffffffff1673ffffffffffffffffffffffffffffffffffffffff1603610deb5760018181548110610ca957610ca8611b0f565b5b90600052602060002090600402016040518060800160405290816000820160009054906101000a900473ffffffffffffffffffffffffffffffffffffffff1673ffffffffffffffffffffffffffffffffffffffff1673ffffffffffffffffffffffffffffffffffffffff16815260200160018201548152602001600282018054610d32906117bf565b80601f0160208091040260200160405190810160405280929190818152602001828054610d5e906117bf565b8015610dab5780601f10610d8057610100808354040283529160200191610dab565b820191906000526020600020905b815481529060010190602001808311610d8e57829003601f168201915b50505050508152602001600382015481525050838381518110610dd157610dd0611b0f565b5b60200260200101819052508180610de790611b6d565b9250505b8080610df690611b6d565b915050610c10565b50819350505050919050565b60606002805480602002602001604051908101604052809291908181526020016000905b82821015610f5c57838290600052602060002090600402016040518060800160405290816000820160009054906101000a900473ffffffffffffffffffffffffffffffffffffffff1673ffffffffffffffffffffffffffffffffffffffff1673ffffffffffffffffffffffffffffffffffffffff16815260200160018201548152602001600282018054610ec1906117bf565b80601f0160208091040260200160405190810160405280929190818152602001828054610eed906117bf565b8015610f3a5780601f10610f0f57610100808354040283529160200191610f3a565b820191906000526020600020905b815481529060010190602001808311610f1d57829003601f168201915b5050505050815260200160038201548152505081526020019060010190610e2e565b50505050905090565b6040518060800160405280600073ffffffffffffffffffffffffffffffffffffffff1681526020016000815260200160608152602001600081525090565b6040518060800160405280600073ffffffffffffffffffffffffffffffffffffffff1681526020016000815260200160608152602001600081525090565b6000604051905090565b600080fd5b600080fd5b600080fd5b600080fd5b6000601f19601f8301169050919050565b7f4e487b7100000000000000000000000000000000000000000000000000000000600052604160045260246000fd5b61104882610fff565b810181811067ffffffffffffffff8211171561106757611066611010565b5b80604052505050565b600061107a610fe1565b9050611086828261103f565b919050565b600067ffffffffffffffff8211156110a6576110a5611010565b5b6110af82610fff565b9050602081019050919050565b82818337600083830152505050565b60006110de6110d98461108b565b611070565b9050828152602081018484840111156110fa576110f9610ffa565b5b6111058482856110bc565b509392505050565b600082601f83011261112257611121610ff5565b5b81356111328482602086016110cb565b91505092915050565b60006020828403121561115157611150610feb565b5b600082013567ffffffffffffffff81111561116f5761116e610ff0565b5b61117b8482850161110d565b91505092915050565b6000819050919050565b61119781611184565b81146111a257600080fd5b50565b6000813590506111b48161118e565b92915050565b6000602082840312156111d0576111cf610feb565b5b60006111de848285016111a5565b91505092915050565b600073ffffffffffffffffffffffffffffffffffffffff82169050919050565b6000611212826111e7565b9050919050565b61122281611207565b82525050565b61123181611184565b82525050565b600081519050919050565b600082825260208201905092915050565b60005b83811015611271578082015181840152602081019050611256565b60008484015250505050565b600061128882611237565b6112928185611242565b93506112a2818560208601611253565b6112ab81610fff565b840191505092915050565b60006080820190506112cb6000830187611219565b6112d86020830186611228565b81810360408301526112ea818561127d565b90506112f96060830184611228565b95945050505050565b600061130d826111e7565b9050919050565b61131d81611302565b811461132857600080fd5b50565b60008135905061133a81611314565b92915050565b60008060006060848603121561135957611358610feb565b5b60006113678682870161132b565b935050602084013567ffffffffffffffff81111561138857611387610ff0565b5b6113948682870161110d565b92505060406113a5868287016111a5565b9150509250925092565b600081519050919050565b600082825260208201905092915050565b6000819050602082019050919050565b6113e481611207565b82525050565b6113f381611184565b82525050565b600082825260208201905092915050565b600061141582611237565b61141f81856113f9565b935061142f818560208601611253565b61143881610fff565b840191505092915050565b600060808301600083015161145b60008601826113db565b50602083015161146e60208601826113ea565b5060408301518482036040860152611486828261140a565b915050606083015161149b60608601826113ea565b508091505092915050565b60006114b28383611443565b905092915050565b6000602082019050919050565b60006114d2826113af565b6114dc81856113ba565b9350836020820285016114ee856113cb565b8060005b8581101561152a578484038952815161150b85826114a6565b9450611516836114ba565b925060208a019950506001810190506114f2565b50829750879550505050505092915050565b6000602082019050818103600083015261155681846114c7565b905092915050565b61156781611207565b811461157257600080fd5b50565b6000813590506115848161155e565b92915050565b6000602082840312156115a05761159f610feb565b5b60006115ae84828501611575565b91505092915050565b600081519050919050565b600082825260208201905092915050565b6000819050602082019050919050565b60006080830160008301516115fb60008601826113db565b50602083015161160e60208601826113ea565b5060408301518482036040860152611626828261140a565b915050606083015161163b60608601826113ea565b508091505092915050565b600061165283836115e3565b905092915050565b6000602082019050919050565b6000611672826115b7565b61167c81856115c2565b93508360208202850161168e856115d3565b8060005b858110156116ca57848403895281516116ab8582611646565b94506116b68361165a565b925060208a01995050600181019050611692565b50829750879550505050505092915050565b600060208201905081810360008301526116f68184611667565b905092915050565b7f446f6e6174696f6e20616d6f756e74206d75737420626520677265617465722060008201527f7468616e20300000000000000000000000000000000000000000000000000000602082015250565b600061175a602683611242565b9150611765826116fe565b604082019050919050565b600060208201905081810360008301526117898161174d565b9050919050565b7f4e487b7100000000000000000000000000000000000000000000000000000000600052602260045260246000fd5b600060028204905060018216806117d757607f821691505b6020821081036117ea576117e9611790565b5b50919050565b60008190508160005260206000209050919050565b60006020601f8301049050919050565b600082821b905092915050565b6000600883026118527fffffffffffffffffffffffffffffffffffffffffffffffffffffffffffffffff82611815565b61185c8683611815565b95508019841693508086168417925050509392505050565b6000819050919050565b600061189961189461188f84611184565b611874565b611184565b9050919050565b6000819050919050565b6118b38361187e565b6118c76118bf826118a0565b848454611822565b825550505050565b600090565b6118dc6118cf565b6118e78184846118aa565b505050565b5b8181101561190b576119006000826118d4565b6001810190506118ed565b5050565b601f82111561195057611921816117f0565b61192a84611805565b81016020851015611939578190505b61194d61194585611805565b8301826118ec565b50505b505050565b600082821c905092915050565b600061197360001984600802611955565b1980831691505092915050565b600061198c8383611962565b9150826002028217905092915050565b6119a582611237565b67ffffffffffffffff8111156119be576119bd611010565b5b6119c882546117bf565b6119d382828561190f565b600060209050601f831160018114611a0657600084156119f4578287015190505b6119fe8582611980565b865550611a66565b601f198416611a14866117f0565b60005b82811015611a3c57848901518255600182019150602085019450602081019050611a17565b86831015611a595784890151611a55601f891682611962565b8355505b6001600288020188555050505b505050505050565b6000611a89611a84611a7f846111e7565b611874565b6111e7565b9050919050565b6000611a9b82611a6e565b9050919050565b6000611aad82611a90565b9050919050565b611abd81611aa2565b82525050565b6000608082019050611ad86000830187611ab4565b611ae56020830186611228565b8181036040830152611af7818561127d565b9050611b066060830184611228565b95945050505050565b7f4e487b7100000000000000000000000000000000000000000000000000000000600052603260045260246000fd5b7f4e487b7100000000000000000000000000000000000000000000000000000000600052601160045260246000fd5b6000611b7882611184565b91507fffffffffffffffffffffffffffffffffffffffffffffffffffffffffffffffff8203611baa57611ba9611b3e565b5b60018201905091905056fea2646970667358221220ebac8660deafa9a27c162dd88a5eff0296757e784e50bf2e7a463039912ab5e164736f6c63430008130033",
  "immutableReferences": {},
  "source": "// SPDX-License-Identifier: GPL-3.0\r\n\r\npragma solidity ^0.8.10.0;\r\n// contract\r\n\r\n\r\ncontract FinancialTrackingSystem {\r\n    // storing transaction details\r\n\r\n    constructor() payable{}\r\n\r\n    struct Transaction {\r\n        address donor;\r\n        uint256 amount;\r\n        string purpose;\r\n        uint256 timestamp;\r\n    }\r\n\r\n        //the event emitted when a transaction is successfully created\r\n    event TransactionAddedSuccess (\r\n        address donor,\r\n        uint256 amount,\r\n        string purpose,\r\n        uint256 timestamp\r\n    );\r\n\r\n            // storing disburse transaction details\r\n    struct DisburseTransaction {\r\n        address receiver_org;\r\n        uint256 amount;\r\n        string organization_purpose;\r\n        uint256 timestamp;\r\n    }\r\n    \r\n\r\n    event DisbursementAddedSuccess (\r\n        address receiver_org,\r\n        uint256 amount,\r\n        string organization_purpose,\r\n        uint256 timestamp\r\n    );\r\n\r\n    uint256 contractFee = 0.01 ether;\r\n    // array to store all the transactions\r\n    Transaction[] public transactions;\r\n\r\n        //  array to store all the transactions\r\n    DisburseTransaction[] public disbursedTransactions;\r\n\r\n    //  creating new transactions\r\n    function createTransaction(string memory _purpose) external  payable  {\r\n        \r\n        require(msg.value > 0, \"Donation amount must be greater than 0\");\r\n        \r\n        Transaction memory newTransaction = Transaction({\r\n            donor: msg.sender,\r\n            amount: msg.value,\r\n            purpose: _purpose,\r\n            timestamp: block.timestamp\r\n        });\r\n        transactions.push(newTransaction);\r\n\r\n        emit TransactionAddedSuccess(\r\n            msg.sender,\r\n            msg.value,\r\n            _purpose,\r\n            block.timestamp\r\n            \r\n        );\r\n    }\r\n    \r\n    //  retrieving all transactions\r\n    function getTransactions() public view returns (Transaction[] memory) {\r\n        return transactions;\r\n    }\r\n    \r\n    // transactions by donor\r\n    function getTransactionsByDonor(address _donor) public view returns (Transaction[] memory) {\r\n        uint256 count = 0;\r\n        for (uint256 i = 0; i < transactions.length; i++) {\r\n            if (transactions[i].donor == _donor) {\r\n                count++;\r\n            }\r\n        }\r\n        Transaction[] memory result = new Transaction[](count);\r\n        uint256 index = 0;\r\n        for (uint256 i = 0; i < transactions.length; i++) {\r\n            if (transactions[i].donor == _donor) {\r\n                result[index] = transactions[i];\r\n                index++;\r\n            }\r\n        }\r\n        return result;\r\n    }\r\n    \r\n    // // retrieving all transactions by USAID\r\n    // function getTransactionsByUSAID(address _usaid) public view returns (Transaction[] memory) {\r\n    //     uint256 count = 0;\r\n    //     for (uint256 i = 0; i < transactions.length; i++) {\r\n    //         if (transactions[i].usaid == _usaid) {\r\n    //             count++;\r\n    //         }\r\n    //     }\r\n    //     Transaction[] memory result = new Transaction[](count);\r\n    //     uint256 index = 0;\r\n    //     for (uint256 i = 0; i < transactions.length; i++) {\r\n    //         if (transactions[i].usaid == _usaid) {\r\n    //             result[index] = transactions[i];\r\n    //             index++;\r\n    //         }\r\n    //     }\r\n    //     return result;\r\n    // }\r\n\r\n\r\n\r\n    // creating new disburse transactions\r\n    function createDisburseTransaction(address payable  _receiver_org, string memory _organization_purpose, uint _amount) external  {\r\n        \r\n        \r\n        DisburseTransaction memory newTransaction = DisburseTransaction({\r\n            receiver_org: _receiver_org,\r\n            amount: _amount,\r\n            organization_purpose: _organization_purpose,\r\n            timestamp: block.timestamp\r\n        });\r\n        disbursedTransactions.push(newTransaction);\r\n\r\n        _receiver_org.transfer(_amount);\r\n\r\n        emit DisbursementAddedSuccess(\r\n            _receiver_org,\r\n            _amount,\r\n            _organization_purpose,\r\n            block.timestamp\r\n            \r\n        );\r\n    }\r\n    \r\n    //  retrieving all disburse transactions\r\n    function getDisburseTransactions() public view returns (DisburseTransaction[] memory) {\r\n        return disbursedTransactions;\r\n    }\r\n    \r\n    // // transactions by disburser\r\n    // function getTransactionsByDisburser(address _usaid) public view returns (DisburseTransaction[] memory) {\r\n    //     uint256 count = 0;\r\n    //     for (uint256 i = 0; i < disbursedTransactions.length; i++) {\r\n    //         if (disbursedTransactions[i].usaid == _usaid) {\r\n    //             count++;\r\n    //         }\r\n    //     }\r\n    //     DisburseTransaction[] memory result = new DisburseTransaction[](count);\r\n    //     uint256 index = 0;\r\n    //     for (uint256 i = 0; i < disbursedTransactions.length; i++) {\r\n    //         if (disbursedTransactions[i].usaid == _usaid) {\r\n    //             result[index] = disbursedTransactions[i];\r\n    //             index++;\r\n    //         }\r\n    //     }\r\n    //     return result;\r\n    // }\r\n    \r\n    // retrieving all transactions by orgs\r\n    function getTransactionsByReceiver_orgORG(address _receiver_org) public view returns (DisburseTransaction[] memory) {\r\n        uint256 count = 0;\r\n        for (uint256 i = 0; i < disbursedTransactions.length; i++) {\r\n            if (disbursedTransactions[i].receiver_org == _receiver_org) {\r\n                count++;\r\n            }\r\n        }\r\n        DisburseTransaction[] memory result = new DisburseTransaction[](count);\r\n        uint256 index = 0;\r\n        for (uint256 i = 0; i < disbursedTransactions.length; i++) {\r\n            if (disbursedTransactions[i].receiver_org == _receiver_org) {\r\n                result[index] = disbursedTransactions[i];\r\n                index++;\r\n            }\r\n        }\r\n        return result;\r\n    }\r\n}",
  "sourcePath": "C:\\Users\\Felabs\\Desktop\\HackTrustHackathon\\contracts\\FinancialTrackingSystem.sol",
  "compiler": {
    "name": "solc",
    "version": "0.8.19+commit.7dd6d404.Emscripten.clang"
  },
  "schemaVersion": "3.4.13",
  "updatedAt": "2023-04-30T05:30:23.818Z",
  "networkType": "ethereum",
  "devdoc": {
    "kind": "dev",
    "methods": {},
    "version": 1
  },
  "userdoc": {
    "kind": "user",
    "methods": {},
    "version": 1
  }
}