{
  "contractName": "FinancialTrackingSystem",
  "abi": [
    {
      "inputs": [
        {
          "internalType": "uint256",
          "name": "",
          "type": "uint256"
        }
      ],
      "name": "disbursedTransactions",
      "outputs": [
        {
          "internalType": "address",
          "name": "usaid",
          "type": "address"
        },
        {
          "internalType": "address",
          "name": "receiver_org",
          "type": "address"
        },
        {
          "internalType": "uint256",
          "name": "amount",
          "type": "uint256"
        },
        {
          "internalType": "string",
          "name": "organization_purpose",
          "type": "string"
        },
        {
          "internalType": "uint256",
          "name": "timestamp",
          "type": "uint256"
        }
      ],
      "stateMutability": "view",
      "type": "function",
      "constant": true
    },
    {
      "inputs": [
        {
          "internalType": "uint256",
          "name": "",
          "type": "uint256"
        }
      ],
      "name": "transactions",
      "outputs": [
        {
          "internalType": "address",
          "name": "donor",
          "type": "address"
        },
        {
          "internalType": "address",
          "name": "usaid",
          "type": "address"
        },
        {
          "internalType": "uint256",
          "name": "amount",
          "type": "uint256"
        },
        {
          "internalType": "string",
          "name": "purpose",
          "type": "string"
        },
        {
          "internalType": "uint256",
          "name": "timestamp",
          "type": "uint256"
        }
      ],
      "stateMutability": "view",
      "type": "function",
      "constant": true
    },
    {
      "inputs": [
        {
          "internalType": "address",
          "name": "_donor",
          "type": "address"
        },
        {
          "internalType": "address",
          "name": "_usaid",
          "type": "address"
        },
        {
          "internalType": "uint256",
          "name": "_amount",
          "type": "uint256"
        },
        {
          "internalType": "string",
          "name": "_purpose",
          "type": "string"
        }
      ],
      "name": "createTransaction",
      "outputs": [],
      "stateMutability": "nonpayable",
      "type": "function"
    },
    {
      "inputs": [],
      "name": "getTransactions",
      "outputs": [
        {
          "components": [
            {
              "internalType": "address",
              "name": "donor",
              "type": "address"
            },
            {
              "internalType": "address",
              "name": "usaid",
              "type": "address"
            },
            {
              "internalType": "uint256",
              "name": "amount",
              "type": "uint256"
            },
            {
              "internalType": "string",
              "name": "purpose",
              "type": "string"
            },
            {
              "internalType": "uint256",
              "name": "timestamp",
              "type": "uint256"
            }
          ],
          "internalType": "struct FinancialTrackingSystem.Transaction[]",
          "name": "",
          "type": "tuple[]"
        }
      ],
      "stateMutability": "view",
      "type": "function",
      "constant": true
    },
    {
      "inputs": [
        {
          "internalType": "address",
          "name": "_donor",
          "type": "address"
        }
      ],
      "name": "getTransactionsByDonor",
      "outputs": [
        {
          "components": [
            {
              "internalType": "address",
              "name": "donor",
              "type": "address"
            },
            {
              "internalType": "address",
              "name": "usaid",
              "type": "address"
            },
            {
              "internalType": "uint256",
              "name": "amount",
              "type": "uint256"
            },
            {
              "internalType": "string",
              "name": "purpose",
              "type": "string"
            },
            {
              "internalType": "uint256",
              "name": "timestamp",
              "type": "uint256"
            }
          ],
          "internalType": "struct FinancialTrackingSystem.Transaction[]",
          "name": "",
          "type": "tuple[]"
        }
      ],
      "stateMutability": "view",
      "type": "function",
      "constant": true
    },
    {
      "inputs": [
        {
          "internalType": "address",
          "name": "_usaid",
          "type": "address"
        }
      ],
      "name": "getTransactionsByUSAID",
      "outputs": [
        {
          "components": [
            {
              "internalType": "address",
              "name": "donor",
              "type": "address"
            },
            {
              "internalType": "address",
              "name": "usaid",
              "type": "address"
            },
            {
              "internalType": "uint256",
              "name": "amount",
              "type": "uint256"
            },
            {
              "internalType": "string",
              "name": "purpose",
              "type": "string"
            },
            {
              "internalType": "uint256",
              "name": "timestamp",
              "type": "uint256"
            }
          ],
          "internalType": "struct FinancialTrackingSystem.Transaction[]",
          "name": "",
          "type": "tuple[]"
        }
      ],
      "stateMutability": "view",
      "type": "function",
      "constant": true
    },
    {
      "inputs": [
        {
          "internalType": "address",
          "name": "_usaid",
          "type": "address"
        },
        {
          "internalType": "address",
          "name": "_receiver_org",
          "type": "address"
        },
        {
          "internalType": "uint256",
          "name": "_amount",
          "type": "uint256"
        },
        {
          "internalType": "string",
          "name": "_organization_purpose",
          "type": "string"
        }
      ],
      "name": "createDisburseTransaction",
      "outputs": [],
      "stateMutability": "nonpayable",
      "type": "function"
    },
    {
      "inputs": [],
      "name": "getDisburseTransactions",
      "outputs": [
        {
          "components": [
            {
              "internalType": "address",
              "name": "usaid",
              "type": "address"
            },
            {
              "internalType": "address",
              "name": "receiver_org",
              "type": "address"
            },
            {
              "internalType": "uint256",
              "name": "amount",
              "type": "uint256"
            },
            {
              "internalType": "string",
              "name": "organization_purpose",
              "type": "string"
            },
            {
              "internalType": "uint256",
              "name": "timestamp",
              "type": "uint256"
            }
          ],
          "internalType": "struct FinancialTrackingSystem.DisburseTransaction[]",
          "name": "",
          "type": "tuple[]"
        }
      ],
      "stateMutability": "view",
      "type": "function",
      "constant": true
    },
    {
      "inputs": [
        {
          "internalType": "address",
          "name": "_usaid",
          "type": "address"
        }
      ],
      "name": "getTransactionsByDisburser",
      "outputs": [
        {
          "components": [
            {
              "internalType": "address",
              "name": "usaid",
              "type": "address"
            },
            {
              "internalType": "address",
              "name": "receiver_org",
              "type": "address"
            },
            {
              "internalType": "uint256",
              "name": "amount",
              "type": "uint256"
            },
            {
              "internalType": "string",
              "name": "organization_purpose",
              "type": "string"
            },
            {
              "internalType": "uint256",
              "name": "timestamp",
              "type": "uint256"
            }
          ],
          "internalType": "struct FinancialTrackingSystem.DisburseTransaction[]",
          "name": "",
          "type": "tuple[]"
        }
      ],
      "stateMutability": "view",
      "type": "function",
      "constant": true
    },
    {
      "inputs": [
        {
          "internalType": "address",
          "name": "_receiver_org",
          "type": "address"
        }
      ],
      "name": "getTransactionsByReceiver_orgORG",
      "outputs": [
        {
          "components": [
            {
              "internalType": "address",
              "name": "usaid",
              "type": "address"
            },
            {
              "internalType": "address",
              "name": "receiver_org",
              "type": "address"
            },
            {
              "internalType": "uint256",
              "name": "amount",
              "type": "uint256"
            },
            {
              "internalType": "string",
              "name": "organization_purpose",
              "type": "string"
            },
            {
              "internalType": "uint256",
              "name": "timestamp",
              "type": "uint256"
            }
          ],
          "internalType": "struct FinancialTrackingSystem.DisburseTransaction[]",
          "name": "",
          "type": "tuple[]"
        }
      ],
      "stateMutability": "view",
      "type": "function",
      "constant": true
    }
  ],
  "bytecode": "0x608060405234801561001057600080fd5b506123d5806100206000396000f3fe608060405234801561001057600080fd5b506004361061009e5760003560e01c80638a388b35116100665780638a388b3514610171578063954d1de91461018d5780639ace38c2146101bd578063be0f7caf146101f1578063de74bfd4146102215761009e565b80630c30d135146100a35780634bec4a00146100d35780636d095184146100ef57806383920e9014610123578063899539b714610141575b600080fd5b6100bd60048036038101906100b89190611943565b61023f565b6040516100ca9190611b60565b60405180910390f35b6100ed60048036038101906100e89190611ce3565b610599565b005b61010960048036038101906101049190611d66565b6106dd565b60405161011a959493929190611dfb565b60405180910390f35b61012b6107eb565b6040516101389190611b60565b60405180910390f35b61015b60048036038101906101569190611943565b61099c565b6040516101689190611f8d565b60405180910390f35b61018b60048036038101906101869190611ce3565b610cf6565b005b6101a760048036038101906101a29190611943565b610ea8565b6040516101b49190611f8d565b60405180910390f35b6101d760048036038101906101d29190611d66565b611202565b6040516101e8959493929190611dfb565b60405180910390f35b61020b60048036038101906102069190611943565b611310565b6040516102189190611b60565b60405180910390f35b61022961166a565b6040516102369190611f8d565b60405180910390f35b60606000805b6000805490508110156102ec578373ffffffffffffffffffffffffffffffffffffffff166000828154811061027d5761027c611faf565b5b906000526020600020906005020160010160009054906101000a900473ffffffffffffffffffffffffffffffffffffffff1673ffffffffffffffffffffffffffffffffffffffff16036102d95781806102d59061200d565b9250505b80806102e49061200d565b915050610245565b5060008167ffffffffffffffff81111561030957610308611bb8565b5b60405190808252806020026020018201604052801561034257816020015b61032f61181b565b8152602001906001900390816103275790505b5090506000805b60008054905081101561058d578573ffffffffffffffffffffffffffffffffffffffff166000828154811061038157610380611faf565b5b906000526020600020906005020160010160009054906101000a900473ffffffffffffffffffffffffffffffffffffffff1673ffffffffffffffffffffffffffffffffffffffff160361057a57600081815481106103e2576103e1611faf565b5b90600052602060002090600502016040518060a00160405290816000820160009054906101000a900473ffffffffffffffffffffffffffffffffffffffff1673ffffffffffffffffffffffffffffffffffffffff1673ffffffffffffffffffffffffffffffffffffffff1681526020016001820160009054906101000a900473ffffffffffffffffffffffffffffffffffffffff1673ffffffffffffffffffffffffffffffffffffffff1673ffffffffffffffffffffffffffffffffffffffff168152602001600282015481526020016003820180546104c190612084565b80601f01602080910402602001604051908101604052809291908181526020018280546104ed90612084565b801561053a5780601f1061050f5761010080835404028352916020019161053a565b820191906000526020600020905b81548152906001019060200180831161051d57829003601f168201915b505050505081526020016004820154815250508383815181106105605761055f611faf565b5b602002602001018190525081806105769061200d565b9250505b80806105859061200d565b915050610349565b50819350505050919050565b60006040518060a001604052808673ffffffffffffffffffffffffffffffffffffffff1681526020018573ffffffffffffffffffffffffffffffffffffffff168152602001848152602001838152602001428152509050600181908060018154018082558091505060019003906000526020600020906005020160009091909190915060008201518160000160006101000a81548173ffffffffffffffffffffffffffffffffffffffff021916908373ffffffffffffffffffffffffffffffffffffffff16021790555060208201518160010160006101000a81548173ffffffffffffffffffffffffffffffffffffffff021916908373ffffffffffffffffffffffffffffffffffffffff1602179055506040820151816002015560608201518160030190816106c99190612261565b506080820151816004015550505050505050565b600181815481106106ed57600080fd5b90600052602060002090600502016000915090508060000160009054906101000a900473ffffffffffffffffffffffffffffffffffffffff16908060010160009054906101000a900473ffffffffffffffffffffffffffffffffffffffff169080600201549080600301805461076290612084565b80601f016020809104026020016040519081016040528092919081815260200182805461078e90612084565b80156107db5780601f106107b0576101008083540402835291602001916107db565b820191906000526020600020905b8154815290600101906020018083116107be57829003601f168201915b5050505050908060040154905085565b60606000805480602002602001604051908101604052809291908181526020016000905b8282101561099357838290600052602060002090600502016040518060a00160405290816000820160009054906101000a900473ffffffffffffffffffffffffffffffffffffffff1673ffffffffffffffffffffffffffffffffffffffff1673ffffffffffffffffffffffffffffffffffffffff1681526020016001820160009054906101000a900473ffffffffffffffffffffffffffffffffffffffff1673ffffffffffffffffffffffffffffffffffffffff1673ffffffffffffffffffffffffffffffffffffffff168152602001600282015481526020016003820180546108f890612084565b80601f016020809104026020016040519081016040528092919081815260200182805461092490612084565b80156109715780601f1061094657610100808354040283529160200191610971565b820191906000526020600020905b81548152906001019060200180831161095457829003601f168201915b505050505081526020016004820154815250508152602001906001019061080f565b50505050905090565b60606000805b600180549050811015610a49578373ffffffffffffffffffffffffffffffffffffffff16600182815481106109da576109d9611faf565b5b906000526020600020906005020160000160009054906101000a900473ffffffffffffffffffffffffffffffffffffffff1673ffffffffffffffffffffffffffffffffffffffff1603610a36578180610a329061200d565b9250505b8080610a419061200d565b9150506109a2565b5060008167ffffffffffffffff811115610a6657610a65611bb8565b5b604051908082528060200260200182016040528015610a9f57816020015b610a8c611876565b815260200190600190039081610a845790505b5090506000805b600180549050811015610cea578573ffffffffffffffffffffffffffffffffffffffff1660018281548110610ade57610add611faf565b5b906000526020600020906005020160000160009054906101000a900473ffffffffffffffffffffffffffffffffffffffff1673ffffffffffffffffffffffffffffffffffffffff1603610cd75760018181548110610b3f57610b3e611faf565b5b90600052602060002090600502016040518060a00160405290816000820160009054906101000a900473ffffffffffffffffffffffffffffffffffffffff1673ffffffffffffffffffffffffffffffffffffffff1673ffffffffffffffffffffffffffffffffffffffff1681526020016001820160009054906101000a900473ffffffffffffffffffffffffffffffffffffffff1673ffffffffffffffffffffffffffffffffffffffff1673ffffffffffffffffffffffffffffffffffffffff16815260200160028201548152602001600382018054610c1e90612084565b80601f0160208091040260200160405190810160405280929190818152602001828054610c4a90612084565b8015610c975780601f10610c6c57610100808354040283529160200191610c97565b820191906000526020600020905b815481529060010190602001808311610c7a57829003601f168201915b50505050508152602001600482015481525050838381518110610cbd57610cbc611faf565b5b60200260200101819052508180610cd39061200d565b9250505b8080610ce29061200d565b915050610aa6565b50819350505050919050565b8273ffffffffffffffffffffffffffffffffffffffff168473ffffffffffffffffffffffffffffffffffffffff1603610d64576040517f08c379a0000000000000000000000000000000000000000000000000000000008152600401610d5b9061237f565b60405180910390fd5b60006040518060a001604052808673ffffffffffffffffffffffffffffffffffffffff1681526020018573ffffffffffffffffffffffffffffffffffffffff168152602001848152602001838152602001428152509050600081908060018154018082558091505060019003906000526020600020906005020160009091909190915060008201518160000160006101000a81548173ffffffffffffffffffffffffffffffffffffffff021916908373ffffffffffffffffffffffffffffffffffffffff16021790555060208201518160010160006101000a81548173ffffffffffffffffffffffffffffffffffffffff021916908373ffffffffffffffffffffffffffffffffffffffff160217905550604082015181600201556060820151816003019081610e949190612261565b506080820151816004015550505050505050565b60606000805b600180549050811015610f55578373ffffffffffffffffffffffffffffffffffffffff1660018281548110610ee657610ee5611faf565b5b906000526020600020906005020160010160009054906101000a900473ffffffffffffffffffffffffffffffffffffffff1673ffffffffffffffffffffffffffffffffffffffff1603610f42578180610f3e9061200d565b9250505b8080610f4d9061200d565b915050610eae565b5060008167ffffffffffffffff811115610f7257610f71611bb8565b5b604051908082528060200260200182016040528015610fab57816020015b610f98611876565b815260200190600190039081610f905790505b5090506000805b6001805490508110156111f6578573ffffffffffffffffffffffffffffffffffffffff1660018281548110610fea57610fe9611faf565b5b906000526020600020906005020160010160009054906101000a900473ffffffffffffffffffffffffffffffffffffffff1673ffffffffffffffffffffffffffffffffffffffff16036111e3576001818154811061104b5761104a611faf565b5b90600052602060002090600502016040518060a00160405290816000820160009054906101000a900473ffffffffffffffffffffffffffffffffffffffff1673ffffffffffffffffffffffffffffffffffffffff1673ffffffffffffffffffffffffffffffffffffffff1681526020016001820160009054906101000a900473ffffffffffffffffffffffffffffffffffffffff1673ffffffffffffffffffffffffffffffffffffffff1673ffffffffffffffffffffffffffffffffffffffff1681526020016002820154815260200160038201805461112a90612084565b80601f016020809104026020016040519081016040528092919081815260200182805461115690612084565b80156111a35780601f10611178576101008083540402835291602001916111a3565b820191906000526020600020905b81548152906001019060200180831161118657829003601f168201915b505050505081526020016004820154815250508383815181106111c9576111c8611faf565b5b602002602001018190525081806111df9061200d565b9250505b80806111ee9061200d565b915050610fb2565b50819350505050919050565b6000818154811061121257600080fd5b90600052602060002090600502016000915090508060000160009054906101000a900473ffffffffffffffffffffffffffffffffffffffff16908060010160009054906101000a900473ffffffffffffffffffffffffffffffffffffffff169080600201549080600301805461128790612084565b80601f01602080910402602001604051908101604052809291908181526020018280546112b390612084565b80156113005780601f106112d557610100808354040283529160200191611300565b820191906000526020600020905b8154815290600101906020018083116112e357829003601f168201915b5050505050908060040154905085565b60606000805b6000805490508110156113bd578373ffffffffffffffffffffffffffffffffffffffff166000828154811061134e5761134d611faf565b5b906000526020600020906005020160000160009054906101000a900473ffffffffffffffffffffffffffffffffffffffff1673ffffffffffffffffffffffffffffffffffffffff16036113aa5781806113a69061200d565b9250505b80806113b59061200d565b915050611316565b5060008167ffffffffffffffff8111156113da576113d9611bb8565b5b60405190808252806020026020018201604052801561141357816020015b61140061181b565b8152602001906001900390816113f85790505b5090506000805b60008054905081101561165e578573ffffffffffffffffffffffffffffffffffffffff166000828154811061145257611451611faf565b5b906000526020600020906005020160000160009054906101000a900473ffffffffffffffffffffffffffffffffffffffff1673ffffffffffffffffffffffffffffffffffffffff160361164b57600081815481106114b3576114b2611faf565b5b90600052602060002090600502016040518060a00160405290816000820160009054906101000a900473ffffffffffffffffffffffffffffffffffffffff1673ffffffffffffffffffffffffffffffffffffffff1673ffffffffffffffffffffffffffffffffffffffff1681526020016001820160009054906101000a900473ffffffffffffffffffffffffffffffffffffffff1673ffffffffffffffffffffffffffffffffffffffff1673ffffffffffffffffffffffffffffffffffffffff1681526020016002820154815260200160038201805461159290612084565b80601f01602080910402602001604051908101604052809291908181526020018280546115be90612084565b801561160b5780601f106115e05761010080835404028352916020019161160b565b820191906000526020600020905b8154815290600101906020018083116115ee57829003601f168201915b5050505050815260200160048201548152505083838151811061163157611630611faf565b5b602002602001018190525081806116479061200d565b9250505b80806116569061200d565b91505061141a565b50819350505050919050565b60606001805480602002602001604051908101604052809291908181526020016000905b8282101561181257838290600052602060002090600502016040518060a00160405290816000820160009054906101000a900473ffffffffffffffffffffffffffffffffffffffff1673ffffffffffffffffffffffffffffffffffffffff1673ffffffffffffffffffffffffffffffffffffffff1681526020016001820160009054906101000a900473ffffffffffffffffffffffffffffffffffffffff1673ffffffffffffffffffffffffffffffffffffffff1673ffffffffffffffffffffffffffffffffffffffff1681526020016002820154815260200160038201805461177790612084565b80601f01602080910402602001604051908101604052809291908181526020018280546117a390612084565b80156117f05780601f106117c5576101008083540402835291602001916117f0565b820191906000526020600020905b8154815290600101906020018083116117d357829003601f168201915b505050505081526020016004820154815250508152602001906001019061168e565b50505050905090565b6040518060a00160405280600073ffffffffffffffffffffffffffffffffffffffff168152602001600073ffffffffffffffffffffffffffffffffffffffff1681526020016000815260200160608152602001600081525090565b6040518060a00160405280600073ffffffffffffffffffffffffffffffffffffffff168152602001600073ffffffffffffffffffffffffffffffffffffffff1681526020016000815260200160608152602001600081525090565b6000604051905090565b600080fd5b600080fd5b600073ffffffffffffffffffffffffffffffffffffffff82169050919050565b6000611910826118e5565b9050919050565b61192081611905565b811461192b57600080fd5b50565b60008135905061193d81611917565b92915050565b600060208284031215611959576119586118db565b5b60006119678482850161192e565b91505092915050565b600081519050919050565b600082825260208201905092915050565b6000819050602082019050919050565b6119a581611905565b82525050565b6000819050919050565b6119be816119ab565b82525050565b600081519050919050565b600082825260208201905092915050565b60005b838110156119fe5780820151818401526020810190506119e3565b60008484015250505050565b6000601f19601f8301169050919050565b6000611a26826119c4565b611a3081856119cf565b9350611a408185602086016119e0565b611a4981611a0a565b840191505092915050565b600060a083016000830151611a6c600086018261199c565b506020830151611a7f602086018261199c565b506040830151611a9260408601826119b5565b5060608301518482036060860152611aaa8282611a1b565b9150506080830151611abf60808601826119b5565b508091505092915050565b6000611ad68383611a54565b905092915050565b6000602082019050919050565b6000611af682611970565b611b00818561197b565b935083602082028501611b128561198c565b8060005b85811015611b4e5784840389528151611b2f8582611aca565b9450611b3a83611ade565b925060208a01995050600181019050611b16565b50829750879550505050505092915050565b60006020820190508181036000830152611b7a8184611aeb565b905092915050565b611b8b816119ab565b8114611b9657600080fd5b50565b600081359050611ba881611b82565b92915050565b600080fd5b600080fd5b7f4e487b7100000000000000000000000000000000000000000000000000000000600052604160045260246000fd5b611bf082611a0a565b810181811067ffffffffffffffff82111715611c0f57611c0e611bb8565b5b80604052505050565b6000611c226118d1565b9050611c2e8282611be7565b919050565b600067ffffffffffffffff821115611c4e57611c4d611bb8565b5b611c5782611a0a565b9050602081019050919050565b82818337600083830152505050565b6000611c86611c8184611c33565b611c18565b905082815260208101848484011115611ca257611ca1611bb3565b5b611cad848285611c64565b509392505050565b600082601f830112611cca57611cc9611bae565b5b8135611cda848260208601611c73565b91505092915050565b60008060008060808587031215611cfd57611cfc6118db565b5b6000611d0b8782880161192e565b9450506020611d1c8782880161192e565b9350506040611d2d87828801611b99565b925050606085013567ffffffffffffffff811115611d4e57611d4d6118e0565b5b611d5a87828801611cb5565b91505092959194509250565b600060208284031215611d7c57611d7b6118db565b5b6000611d8a84828501611b99565b91505092915050565b611d9c81611905565b82525050565b611dab816119ab565b82525050565b600082825260208201905092915050565b6000611dcd826119c4565b611dd78185611db1565b9350611de78185602086016119e0565b611df081611a0a565b840191505092915050565b600060a082019050611e106000830188611d93565b611e1d6020830187611d93565b611e2a6040830186611da2565b8181036060830152611e3c8185611dc2565b9050611e4b6080830184611da2565b9695505050505050565b600081519050919050565b600082825260208201905092915050565b6000819050602082019050919050565b600060a083016000830151611e99600086018261199c565b506020830151611eac602086018261199c565b506040830151611ebf60408601826119b5565b5060608301518482036060860152611ed78282611a1b565b9150506080830151611eec60808601826119b5565b508091505092915050565b6000611f038383611e81565b905092915050565b6000602082019050919050565b6000611f2382611e55565b611f2d8185611e60565b935083602082028501611f3f85611e71565b8060005b85811015611f7b5784840389528151611f5c8582611ef7565b9450611f6783611f0b565b925060208a01995050600181019050611f43565b50829750879550505050505092915050565b60006020820190508181036000830152611fa78184611f18565b905092915050565b7f4e487b7100000000000000000000000000000000000000000000000000000000600052603260045260246000fd5b7f4e487b7100000000000000000000000000000000000000000000000000000000600052601160045260246000fd5b6000612018826119ab565b91507fffffffffffffffffffffffffffffffffffffffffffffffffffffffffffffffff820361204a57612049611fde565b5b600182019050919050565b7f4e487b7100000000000000000000000000000000000000000000000000000000600052602260045260246000fd5b6000600282049050600182168061209c57607f821691505b6020821081036120af576120ae612055565b5b50919050565b60008190508160005260206000209050919050565b60006020601f8301049050919050565b600082821b905092915050565b6000600883026121177fffffffffffffffffffffffffffffffffffffffffffffffffffffffffffffffff826120da565b61212186836120da565b95508019841693508086168417925050509392505050565b6000819050919050565b600061215e612159612154846119ab565b612139565b6119ab565b9050919050565b6000819050919050565b61217883612143565b61218c61218482612165565b8484546120e7565b825550505050565b600090565b6121a1612194565b6121ac81848461216f565b505050565b5b818110156121d0576121c5600082612199565b6001810190506121b2565b5050565b601f821115612215576121e6816120b5565b6121ef846120ca565b810160208510156121fe578190505b61221261220a856120ca565b8301826121b1565b50505b505050565b600082821c905092915050565b60006122386000198460080261221a565b1980831691505092915050565b60006122518383612227565b9150826002028217905092915050565b61226a826119c4565b67ffffffffffffffff81111561228357612282611bb8565b5b61228d8254612084565b6122988282856121d4565b600060209050601f8311600181146122cb57600084156122b9578287015190505b6122c38582612245565b86555061232b565b601f1984166122d9866120b5565b60005b82811015612301578489015182556001820191506020850194506020810190506122dc565b8683101561231e578489015161231a601f891682612227565b8355505b6001600288020188555050505b505050505050565b7f446f6e6f722063616e206e6f742062652073616d652061732055534149440000600082015250565b6000612369601e83611db1565b915061237482612333565b602082019050919050565b600060208201905081810360008301526123988161235c565b905091905056fea2646970667358221220b2d1bb36d0a50b5e03c932c45c104f6dbfeb53740c34763df01445186807815464736f6c63430008130033",
  "immutableReferences": {},
  "source": "// SPDX-License-Identifier: GPL-3.0\r\n\r\npragma solidity ^0.8.10.0;\r\n// contract\r\n\r\n\r\ncontract FinancialTrackingSystem {\r\n    // storing transaction details\r\n\r\n    // constructor() public payable{\r\n\r\n    // }\r\n    struct Transaction {\r\n        address donor;\r\n        address usaid;\r\n        uint256 amount;\r\n        string purpose;\r\n        uint256 timestamp;\r\n    }\r\n\r\n            // storing disburse transaction details\r\n    struct DisburseTransaction {\r\n        address usaid;\r\n        address receiver_org;\r\n        uint256 amount;\r\n        string organization_purpose;\r\n        uint256 timestamp;\r\n    }\r\n    \r\n\r\n    \r\n    // array to store all the transactions\r\n    Transaction[] public transactions;\r\n\r\n        //  array to store all the transactions\r\n    DisburseTransaction[] public disbursedTransactions;\r\n\r\n    //  creating new transactions\r\n    function createTransaction(address _donor, address _usaid, uint256 _amount, string memory _purpose) public {\r\n        require(_donor != _usaid, \"Donor can not be same as USAID\");\r\n        Transaction memory newTransaction = Transaction({\r\n            donor: _donor,\r\n            usaid: _usaid,\r\n            amount: _amount,\r\n            purpose: _purpose,\r\n            timestamp: block.timestamp\r\n        });\r\n        transactions.push(newTransaction);\r\n    }\r\n    \r\n    //  retrieving all transactions\r\n    function getTransactions() public view returns (Transaction[] memory) {\r\n        return transactions;\r\n    }\r\n    \r\n    // transactions by donor\r\n    function getTransactionsByDonor(address _donor) public view returns (Transaction[] memory) {\r\n        uint256 count = 0;\r\n        for (uint256 i = 0; i < transactions.length; i++) {\r\n            if (transactions[i].donor == _donor) {\r\n                count++;\r\n            }\r\n        }\r\n        Transaction[] memory result = new Transaction[](count);\r\n        uint256 index = 0;\r\n        for (uint256 i = 0; i < transactions.length; i++) {\r\n            if (transactions[i].donor == _donor) {\r\n                result[index] = transactions[i];\r\n                index++;\r\n            }\r\n        }\r\n        return result;\r\n    }\r\n    \r\n    // retrieving all transactions by USAID\r\n    function getTransactionsByUSAID(address _usaid) public view returns (Transaction[] memory) {\r\n        uint256 count = 0;\r\n        for (uint256 i = 0; i < transactions.length; i++) {\r\n            if (transactions[i].usaid == _usaid) {\r\n                count++;\r\n            }\r\n        }\r\n        Transaction[] memory result = new Transaction[](count);\r\n        uint256 index = 0;\r\n        for (uint256 i = 0; i < transactions.length; i++) {\r\n            if (transactions[i].usaid == _usaid) {\r\n                result[index] = transactions[i];\r\n                index++;\r\n            }\r\n        }\r\n        return result;\r\n    }\r\n\r\n\r\n\r\n    // creating new disburse transactions\r\n    function createDisburseTransaction(address _usaid, address _receiver_org, uint256 _amount, string memory _organization_purpose) public {\r\n        DisburseTransaction memory newTransaction = DisburseTransaction({\r\n            usaid: _usaid,\r\n            receiver_org: _receiver_org,\r\n            amount: _amount,\r\n            organization_purpose: _organization_purpose,\r\n            timestamp: block.timestamp\r\n        });\r\n        disbursedTransactions.push(newTransaction);\r\n    }\r\n    \r\n    //  retrieving all disburse transactions\r\n    function getDisburseTransactions() public view returns (DisburseTransaction[] memory) {\r\n        return disbursedTransactions;\r\n    }\r\n    \r\n    // transactions by disburser\r\n    function getTransactionsByDisburser(address _usaid) public view returns (DisburseTransaction[] memory) {\r\n        uint256 count = 0;\r\n        for (uint256 i = 0; i < disbursedTransactions.length; i++) {\r\n            if (disbursedTransactions[i].usaid == _usaid) {\r\n                count++;\r\n            }\r\n        }\r\n        DisburseTransaction[] memory result = new DisburseTransaction[](count);\r\n        uint256 index = 0;\r\n        for (uint256 i = 0; i < disbursedTransactions.length; i++) {\r\n            if (disbursedTransactions[i].usaid == _usaid) {\r\n                result[index] = disbursedTransactions[i];\r\n                index++;\r\n            }\r\n        }\r\n        return result;\r\n    }\r\n    \r\n    // retrieving all transactions by orgs\r\n    function getTransactionsByReceiver_orgORG(address _receiver_org) public view returns (DisburseTransaction[] memory) {\r\n        uint256 count = 0;\r\n        for (uint256 i = 0; i < disbursedTransactions.length; i++) {\r\n            if (disbursedTransactions[i].receiver_org == _receiver_org) {\r\n                count++;\r\n            }\r\n        }\r\n        DisburseTransaction[] memory result = new DisburseTransaction[](count);\r\n        uint256 index = 0;\r\n        for (uint256 i = 0; i < disbursedTransactions.length; i++) {\r\n            if (disbursedTransactions[i].receiver_org == _receiver_org) {\r\n                result[index] = disbursedTransactions[i];\r\n                index++;\r\n            }\r\n        }\r\n        return result;\r\n    }\r\n}\r\n",
  "sourcePath": "C:\\Users\\Felabs\\Desktop\\HackTrustHackathon\\contracts\\FinancialTrackingSystem.sol",
  "compiler": {
    "name": "solc",
    "version": "0.8.19+commit.7dd6d404.Emscripten.clang"
  },
  "schemaVersion": "3.4.13",
  "updatedAt": "2023-04-29T22:43:42.850Z",
  "networkType": "ethereum",
  "devdoc": {
    "kind": "dev",
    "methods": {},
    "version": 1
  },
  "userdoc": {
    "kind": "user",
    "methods": {},
    "version": 1
  }
}