{
  "contractName": "FinancialTrackingSystem",
  "abi": [
    {
      "inputs": [
        {
          "internalType": "uint256",
          "name": "",
          "type": "uint256"
        }
      ],
      "name": "disbursedTransactions",
      "outputs": [
        {
          "internalType": "address",
          "name": "usaid",
          "type": "address"
        },
        {
          "internalType": "address",
          "name": "receiver_org",
          "type": "address"
        },
        {
          "internalType": "uint256",
          "name": "amount",
          "type": "uint256"
        },
        {
          "internalType": "string",
          "name": "organization_purpose",
          "type": "string"
        },
        {
          "internalType": "uint256",
          "name": "timestamp",
          "type": "uint256"
        }
      ],
      "stateMutability": "view",
      "type": "function"
    },
    {
      "inputs": [
        {
          "internalType": "uint256",
          "name": "",
          "type": "uint256"
        }
      ],
      "name": "transactions",
      "outputs": [
        {
          "internalType": "address",
          "name": "donor",
          "type": "address"
        },
        {
          "internalType": "address",
          "name": "usaid",
          "type": "address"
        },
        {
          "internalType": "uint256",
          "name": "amount",
          "type": "uint256"
        },
        {
          "internalType": "string",
          "name": "purpose",
          "type": "string"
        },
        {
          "internalType": "uint256",
          "name": "timestamp",
          "type": "uint256"
        }
      ],
      "stateMutability": "view",
      "type": "function"
    },
    {
      "inputs": [
        {
          "internalType": "address",
          "name": "_donor",
          "type": "address"
        },
        {
          "internalType": "address",
          "name": "_usaid",
          "type": "address"
        },
        {
          "internalType": "uint256",
          "name": "_amount",
          "type": "uint256"
        },
        {
          "internalType": "string",
          "name": "_purpose",
          "type": "string"
        }
      ],
      "name": "createTransaction",
      "outputs": [],
      "stateMutability": "nonpayable",
      "type": "function"
    },
    {
      "inputs": [],
      "name": "getTransactions",
      "outputs": [
        {
          "components": [
            {
              "internalType": "address",
              "name": "donor",
              "type": "address"
            },
            {
              "internalType": "address",
              "name": "usaid",
              "type": "address"
            },
            {
              "internalType": "uint256",
              "name": "amount",
              "type": "uint256"
            },
            {
              "internalType": "string",
              "name": "purpose",
              "type": "string"
            },
            {
              "internalType": "uint256",
              "name": "timestamp",
              "type": "uint256"
            }
          ],
          "internalType": "struct FinancialTrackingSystem.Transaction[]",
          "name": "",
          "type": "tuple[]"
        }
      ],
      "stateMutability": "view",
      "type": "function"
    },
    {
      "inputs": [
        {
          "internalType": "address",
          "name": "_donor",
          "type": "address"
        }
      ],
      "name": "getTransactionsByDonor",
      "outputs": [
        {
          "components": [
            {
              "internalType": "address",
              "name": "donor",
              "type": "address"
            },
            {
              "internalType": "address",
              "name": "usaid",
              "type": "address"
            },
            {
              "internalType": "uint256",
              "name": "amount",
              "type": "uint256"
            },
            {
              "internalType": "string",
              "name": "purpose",
              "type": "string"
            },
            {
              "internalType": "uint256",
              "name": "timestamp",
              "type": "uint256"
            }
          ],
          "internalType": "struct FinancialTrackingSystem.Transaction[]",
          "name": "",
          "type": "tuple[]"
        }
      ],
      "stateMutability": "view",
      "type": "function"
    },
    {
      "inputs": [
        {
          "internalType": "address",
          "name": "_usaid",
          "type": "address"
        }
      ],
      "name": "getTransactionsByUSAID",
      "outputs": [
        {
          "components": [
            {
              "internalType": "address",
              "name": "donor",
              "type": "address"
            },
            {
              "internalType": "address",
              "name": "usaid",
              "type": "address"
            },
            {
              "internalType": "uint256",
              "name": "amount",
              "type": "uint256"
            },
            {
              "internalType": "string",
              "name": "purpose",
              "type": "string"
            },
            {
              "internalType": "uint256",
              "name": "timestamp",
              "type": "uint256"
            }
          ],
          "internalType": "struct FinancialTrackingSystem.Transaction[]",
          "name": "",
          "type": "tuple[]"
        }
      ],
      "stateMutability": "view",
      "type": "function"
    },
    {
      "inputs": [
        {
          "internalType": "address",
          "name": "_usaid",
          "type": "address"
        },
        {
          "internalType": "address",
          "name": "_receiver_org",
          "type": "address"
        },
        {
          "internalType": "uint256",
          "name": "_amount",
          "type": "uint256"
        },
        {
          "internalType": "string",
          "name": "_organization_purpose",
          "type": "string"
        }
      ],
      "name": "createDisburseTransaction",
      "outputs": [],
      "stateMutability": "nonpayable",
      "type": "function"
    },
    {
      "inputs": [],
      "name": "getDisburseTransactions",
      "outputs": [
        {
          "components": [
            {
              "internalType": "address",
              "name": "usaid",
              "type": "address"
            },
            {
              "internalType": "address",
              "name": "receiver_org",
              "type": "address"
            },
            {
              "internalType": "uint256",
              "name": "amount",
              "type": "uint256"
            },
            {
              "internalType": "string",
              "name": "organization_purpose",
              "type": "string"
            },
            {
              "internalType": "uint256",
              "name": "timestamp",
              "type": "uint256"
            }
          ],
          "internalType": "struct FinancialTrackingSystem.DisburseTransaction[]",
          "name": "",
          "type": "tuple[]"
        }
      ],
      "stateMutability": "view",
      "type": "function"
    },
    {
      "inputs": [
        {
          "internalType": "address",
          "name": "_usaid",
          "type": "address"
        }
      ],
      "name": "getTransactionsByDisburser",
      "outputs": [
        {
          "components": [
            {
              "internalType": "address",
              "name": "usaid",
              "type": "address"
            },
            {
              "internalType": "address",
              "name": "receiver_org",
              "type": "address"
            },
            {
              "internalType": "uint256",
              "name": "amount",
              "type": "uint256"
            },
            {
              "internalType": "string",
              "name": "organization_purpose",
              "type": "string"
            },
            {
              "internalType": "uint256",
              "name": "timestamp",
              "type": "uint256"
            }
          ],
          "internalType": "struct FinancialTrackingSystem.DisburseTransaction[]",
          "name": "",
          "type": "tuple[]"
        }
      ],
      "stateMutability": "view",
      "type": "function"
    },
    {
      "inputs": [
        {
          "internalType": "address",
          "name": "_receiver_org",
          "type": "address"
        }
      ],
      "name": "getTransactionsByReceiver_orgORG",
      "outputs": [
        {
          "components": [
            {
              "internalType": "address",
              "name": "usaid",
              "type": "address"
            },
            {
              "internalType": "address",
              "name": "receiver_org",
              "type": "address"
            },
            {
              "internalType": "uint256",
              "name": "amount",
              "type": "uint256"
            },
            {
              "internalType": "string",
              "name": "organization_purpose",
              "type": "string"
            },
            {
              "internalType": "uint256",
              "name": "timestamp",
              "type": "uint256"
            }
          ],
          "internalType": "struct FinancialTrackingSystem.DisburseTransaction[]",
          "name": "",
          "type": "tuple[]"
        }
      ],
      "stateMutability": "view",
      "type": "function"
    }
  ],
  "bytecode": "0x608060405234801561001057600080fd5b506122fb806100206000396000f3fe608060405234801561001057600080fd5b506004361061009e5760003560e01c80638a388b35116100665780638a388b3514610171578063954d1de91461018d5780639ace38c2146101bd578063be0f7caf146101f1578063de74bfd4146102215761009e565b80630c30d135146100a35780634bec4a00146100d35780636d095184146100ef57806383920e9014610123578063899539b714610141575b600080fd5b6100bd60048036038101906100b891906118d5565b61023f565b6040516100ca9190611af2565b60405180910390f35b6100ed60048036038101906100e89190611c75565b610599565b005b61010960048036038101906101049190611cf8565b6106dd565b60405161011a959493929190611d8d565b60405180910390f35b61012b6107eb565b6040516101389190611af2565b60405180910390f35b61015b600480360381019061015691906118d5565b61099c565b6040516101689190611f1f565b60405180910390f35b61018b60048036038101906101869190611c75565b610cf6565b005b6101a760048036038101906101a291906118d5565b610e3a565b6040516101b49190611f1f565b60405180910390f35b6101d760048036038101906101d29190611cf8565b611194565b6040516101e8959493929190611d8d565b60405180910390f35b61020b600480360381019061020691906118d5565b6112a2565b6040516102189190611af2565b60405180910390f35b6102296115fc565b6040516102369190611f1f565b60405180910390f35b60606000805b6000805490508110156102ec578373ffffffffffffffffffffffffffffffffffffffff166000828154811061027d5761027c611f41565b5b906000526020600020906005020160010160009054906101000a900473ffffffffffffffffffffffffffffffffffffffff1673ffffffffffffffffffffffffffffffffffffffff16036102d95781806102d590611f9f565b9250505b80806102e490611f9f565b915050610245565b5060008167ffffffffffffffff81111561030957610308611b4a565b5b60405190808252806020026020018201604052801561034257816020015b61032f6117ad565b8152602001906001900390816103275790505b5090506000805b60008054905081101561058d578573ffffffffffffffffffffffffffffffffffffffff166000828154811061038157610380611f41565b5b906000526020600020906005020160010160009054906101000a900473ffffffffffffffffffffffffffffffffffffffff1673ffffffffffffffffffffffffffffffffffffffff160361057a57600081815481106103e2576103e1611f41565b5b90600052602060002090600502016040518060a00160405290816000820160009054906101000a900473ffffffffffffffffffffffffffffffffffffffff1673ffffffffffffffffffffffffffffffffffffffff1673ffffffffffffffffffffffffffffffffffffffff1681526020016001820160009054906101000a900473ffffffffffffffffffffffffffffffffffffffff1673ffffffffffffffffffffffffffffffffffffffff1673ffffffffffffffffffffffffffffffffffffffff168152602001600282015481526020016003820180546104c190612016565b80601f01602080910402602001604051908101604052809291908181526020018280546104ed90612016565b801561053a5780601f1061050f5761010080835404028352916020019161053a565b820191906000526020600020905b81548152906001019060200180831161051d57829003601f168201915b505050505081526020016004820154815250508383815181106105605761055f611f41565b5b6020026020010181905250818061057690611f9f565b9250505b808061058590611f9f565b915050610349565b50819350505050919050565b60006040518060a001604052808673ffffffffffffffffffffffffffffffffffffffff1681526020018573ffffffffffffffffffffffffffffffffffffffff168152602001848152602001838152602001428152509050600181908060018154018082558091505060019003906000526020600020906005020160009091909190915060008201518160000160006101000a81548173ffffffffffffffffffffffffffffffffffffffff021916908373ffffffffffffffffffffffffffffffffffffffff16021790555060208201518160010160006101000a81548173ffffffffffffffffffffffffffffffffffffffff021916908373ffffffffffffffffffffffffffffffffffffffff1602179055506040820151816002015560608201518160030190816106c991906121f3565b506080820151816004015550505050505050565b600181815481106106ed57600080fd5b90600052602060002090600502016000915090508060000160009054906101000a900473ffffffffffffffffffffffffffffffffffffffff16908060010160009054906101000a900473ffffffffffffffffffffffffffffffffffffffff169080600201549080600301805461076290612016565b80601f016020809104026020016040519081016040528092919081815260200182805461078e90612016565b80156107db5780601f106107b0576101008083540402835291602001916107db565b820191906000526020600020905b8154815290600101906020018083116107be57829003601f168201915b5050505050908060040154905085565b60606000805480602002602001604051908101604052809291908181526020016000905b8282101561099357838290600052602060002090600502016040518060a00160405290816000820160009054906101000a900473ffffffffffffffffffffffffffffffffffffffff1673ffffffffffffffffffffffffffffffffffffffff1673ffffffffffffffffffffffffffffffffffffffff1681526020016001820160009054906101000a900473ffffffffffffffffffffffffffffffffffffffff1673ffffffffffffffffffffffffffffffffffffffff1673ffffffffffffffffffffffffffffffffffffffff168152602001600282015481526020016003820180546108f890612016565b80601f016020809104026020016040519081016040528092919081815260200182805461092490612016565b80156109715780601f1061094657610100808354040283529160200191610971565b820191906000526020600020905b81548152906001019060200180831161095457829003601f168201915b505050505081526020016004820154815250508152602001906001019061080f565b50505050905090565b60606000805b600180549050811015610a49578373ffffffffffffffffffffffffffffffffffffffff16600182815481106109da576109d9611f41565b5b906000526020600020906005020160000160009054906101000a900473ffffffffffffffffffffffffffffffffffffffff1673ffffffffffffffffffffffffffffffffffffffff1603610a36578180610a3290611f9f565b9250505b8080610a4190611f9f565b9150506109a2565b5060008167ffffffffffffffff811115610a6657610a65611b4a565b5b604051908082528060200260200182016040528015610a9f57816020015b610a8c611808565b815260200190600190039081610a845790505b5090506000805b600180549050811015610cea578573ffffffffffffffffffffffffffffffffffffffff1660018281548110610ade57610add611f41565b5b906000526020600020906005020160000160009054906101000a900473ffffffffffffffffffffffffffffffffffffffff1673ffffffffffffffffffffffffffffffffffffffff1603610cd75760018181548110610b3f57610b3e611f41565b5b90600052602060002090600502016040518060a00160405290816000820160009054906101000a900473ffffffffffffffffffffffffffffffffffffffff1673ffffffffffffffffffffffffffffffffffffffff1673ffffffffffffffffffffffffffffffffffffffff1681526020016001820160009054906101000a900473ffffffffffffffffffffffffffffffffffffffff1673ffffffffffffffffffffffffffffffffffffffff1673ffffffffffffffffffffffffffffffffffffffff16815260200160028201548152602001600382018054610c1e90612016565b80601f0160208091040260200160405190810160405280929190818152602001828054610c4a90612016565b8015610c975780601f10610c6c57610100808354040283529160200191610c97565b820191906000526020600020905b815481529060010190602001808311610c7a57829003601f168201915b50505050508152602001600482015481525050838381518110610cbd57610cbc611f41565b5b60200260200101819052508180610cd390611f9f565b9250505b8080610ce290611f9f565b915050610aa6565b50819350505050919050565b60006040518060a001604052808673ffffffffffffffffffffffffffffffffffffffff1681526020018573ffffffffffffffffffffffffffffffffffffffff168152602001848152602001838152602001428152509050600081908060018154018082558091505060019003906000526020600020906005020160009091909190915060008201518160000160006101000a81548173ffffffffffffffffffffffffffffffffffffffff021916908373ffffffffffffffffffffffffffffffffffffffff16021790555060208201518160010160006101000a81548173ffffffffffffffffffffffffffffffffffffffff021916908373ffffffffffffffffffffffffffffffffffffffff160217905550604082015181600201556060820151816003019081610e2691906121f3565b506080820151816004015550505050505050565b60606000805b600180549050811015610ee7578373ffffffffffffffffffffffffffffffffffffffff1660018281548110610e7857610e77611f41565b5b906000526020600020906005020160010160009054906101000a900473ffffffffffffffffffffffffffffffffffffffff1673ffffffffffffffffffffffffffffffffffffffff1603610ed4578180610ed090611f9f565b9250505b8080610edf90611f9f565b915050610e40565b5060008167ffffffffffffffff811115610f0457610f03611b4a565b5b604051908082528060200260200182016040528015610f3d57816020015b610f2a611808565b815260200190600190039081610f225790505b5090506000805b600180549050811015611188578573ffffffffffffffffffffffffffffffffffffffff1660018281548110610f7c57610f7b611f41565b5b906000526020600020906005020160010160009054906101000a900473ffffffffffffffffffffffffffffffffffffffff1673ffffffffffffffffffffffffffffffffffffffff16036111755760018181548110610fdd57610fdc611f41565b5b90600052602060002090600502016040518060a00160405290816000820160009054906101000a900473ffffffffffffffffffffffffffffffffffffffff1673ffffffffffffffffffffffffffffffffffffffff1673ffffffffffffffffffffffffffffffffffffffff1681526020016001820160009054906101000a900473ffffffffffffffffffffffffffffffffffffffff1673ffffffffffffffffffffffffffffffffffffffff1673ffffffffffffffffffffffffffffffffffffffff168152602001600282015481526020016003820180546110bc90612016565b80601f01602080910402602001604051908101604052809291908181526020018280546110e890612016565b80156111355780601f1061110a57610100808354040283529160200191611135565b820191906000526020600020905b81548152906001019060200180831161111857829003601f168201915b5050505050815260200160048201548152505083838151811061115b5761115a611f41565b5b6020026020010181905250818061117190611f9f565b9250505b808061118090611f9f565b915050610f44565b50819350505050919050565b600081815481106111a457600080fd5b90600052602060002090600502016000915090508060000160009054906101000a900473ffffffffffffffffffffffffffffffffffffffff16908060010160009054906101000a900473ffffffffffffffffffffffffffffffffffffffff169080600201549080600301805461121990612016565b80601f016020809104026020016040519081016040528092919081815260200182805461124590612016565b80156112925780601f1061126757610100808354040283529160200191611292565b820191906000526020600020905b81548152906001019060200180831161127557829003601f168201915b5050505050908060040154905085565b60606000805b60008054905081101561134f578373ffffffffffffffffffffffffffffffffffffffff16600082815481106112e0576112df611f41565b5b906000526020600020906005020160000160009054906101000a900473ffffffffffffffffffffffffffffffffffffffff1673ffffffffffffffffffffffffffffffffffffffff160361133c57818061133890611f9f565b9250505b808061134790611f9f565b9150506112a8565b5060008167ffffffffffffffff81111561136c5761136b611b4a565b5b6040519080825280602002602001820160405280156113a557816020015b6113926117ad565b81526020019060019003908161138a5790505b5090506000805b6000805490508110156115f0578573ffffffffffffffffffffffffffffffffffffffff16600082815481106113e4576113e3611f41565b5b906000526020600020906005020160000160009054906101000a900473ffffffffffffffffffffffffffffffffffffffff1673ffffffffffffffffffffffffffffffffffffffff16036115dd576000818154811061144557611444611f41565b5b90600052602060002090600502016040518060a00160405290816000820160009054906101000a900473ffffffffffffffffffffffffffffffffffffffff1673ffffffffffffffffffffffffffffffffffffffff1673ffffffffffffffffffffffffffffffffffffffff1681526020016001820160009054906101000a900473ffffffffffffffffffffffffffffffffffffffff1673ffffffffffffffffffffffffffffffffffffffff1673ffffffffffffffffffffffffffffffffffffffff1681526020016002820154815260200160038201805461152490612016565b80601f016020809104026020016040519081016040528092919081815260200182805461155090612016565b801561159d5780601f106115725761010080835404028352916020019161159d565b820191906000526020600020905b81548152906001019060200180831161158057829003601f168201915b505050505081526020016004820154815250508383815181106115c3576115c2611f41565b5b602002602001018190525081806115d990611f9f565b9250505b80806115e890611f9f565b9150506113ac565b50819350505050919050565b60606001805480602002602001604051908101604052809291908181526020016000905b828210156117a457838290600052602060002090600502016040518060a00160405290816000820160009054906101000a900473ffffffffffffffffffffffffffffffffffffffff1673ffffffffffffffffffffffffffffffffffffffff1673ffffffffffffffffffffffffffffffffffffffff1681526020016001820160009054906101000a900473ffffffffffffffffffffffffffffffffffffffff1673ffffffffffffffffffffffffffffffffffffffff1673ffffffffffffffffffffffffffffffffffffffff1681526020016002820154815260200160038201805461170990612016565b80601f016020809104026020016040519081016040528092919081815260200182805461173590612016565b80156117825780601f1061175757610100808354040283529160200191611782565b820191906000526020600020905b81548152906001019060200180831161176557829003601f168201915b5050505050815260200160048201548152505081526020019060010190611620565b50505050905090565b6040518060a00160405280600073ffffffffffffffffffffffffffffffffffffffff168152602001600073ffffffffffffffffffffffffffffffffffffffff1681526020016000815260200160608152602001600081525090565b6040518060a00160405280600073ffffffffffffffffffffffffffffffffffffffff168152602001600073ffffffffffffffffffffffffffffffffffffffff1681526020016000815260200160608152602001600081525090565b6000604051905090565b600080fd5b600080fd5b600073ffffffffffffffffffffffffffffffffffffffff82169050919050565b60006118a282611877565b9050919050565b6118b281611897565b81146118bd57600080fd5b50565b6000813590506118cf816118a9565b92915050565b6000602082840312156118eb576118ea61186d565b5b60006118f9848285016118c0565b91505092915050565b600081519050919050565b600082825260208201905092915050565b6000819050602082019050919050565b61193781611897565b82525050565b6000819050919050565b6119508161193d565b82525050565b600081519050919050565b600082825260208201905092915050565b60005b83811015611990578082015181840152602081019050611975565b60008484015250505050565b6000601f19601f8301169050919050565b60006119b882611956565b6119c28185611961565b93506119d2818560208601611972565b6119db8161199c565b840191505092915050565b600060a0830160008301516119fe600086018261192e565b506020830151611a11602086018261192e565b506040830151611a246040860182611947565b5060608301518482036060860152611a3c82826119ad565b9150506080830151611a516080860182611947565b508091505092915050565b6000611a6883836119e6565b905092915050565b6000602082019050919050565b6000611a8882611902565b611a92818561190d565b935083602082028501611aa48561191e565b8060005b85811015611ae05784840389528151611ac18582611a5c565b9450611acc83611a70565b925060208a01995050600181019050611aa8565b50829750879550505050505092915050565b60006020820190508181036000830152611b0c8184611a7d565b905092915050565b611b1d8161193d565b8114611b2857600080fd5b50565b600081359050611b3a81611b14565b92915050565b600080fd5b600080fd5b7f4e487b7100000000000000000000000000000000000000000000000000000000600052604160045260246000fd5b611b828261199c565b810181811067ffffffffffffffff82111715611ba157611ba0611b4a565b5b80604052505050565b6000611bb4611863565b9050611bc08282611b79565b919050565b600067ffffffffffffffff821115611be057611bdf611b4a565b5b611be98261199c565b9050602081019050919050565b82818337600083830152505050565b6000611c18611c1384611bc5565b611baa565b905082815260208101848484011115611c3457611c33611b45565b5b611c3f848285611bf6565b509392505050565b600082601f830112611c5c57611c5b611b40565b5b8135611c6c848260208601611c05565b91505092915050565b60008060008060808587031215611c8f57611c8e61186d565b5b6000611c9d878288016118c0565b9450506020611cae878288016118c0565b9350506040611cbf87828801611b2b565b925050606085013567ffffffffffffffff811115611ce057611cdf611872565b5b611cec87828801611c47565b91505092959194509250565b600060208284031215611d0e57611d0d61186d565b5b6000611d1c84828501611b2b565b91505092915050565b611d2e81611897565b82525050565b611d3d8161193d565b82525050565b600082825260208201905092915050565b6000611d5f82611956565b611d698185611d43565b9350611d79818560208601611972565b611d828161199c565b840191505092915050565b600060a082019050611da26000830188611d25565b611daf6020830187611d25565b611dbc6040830186611d34565b8181036060830152611dce8185611d54565b9050611ddd6080830184611d34565b9695505050505050565b600081519050919050565b600082825260208201905092915050565b6000819050602082019050919050565b600060a083016000830151611e2b600086018261192e565b506020830151611e3e602086018261192e565b506040830151611e516040860182611947565b5060608301518482036060860152611e6982826119ad565b9150506080830151611e7e6080860182611947565b508091505092915050565b6000611e958383611e13565b905092915050565b6000602082019050919050565b6000611eb582611de7565b611ebf8185611df2565b935083602082028501611ed185611e03565b8060005b85811015611f0d5784840389528151611eee8582611e89565b9450611ef983611e9d565b925060208a01995050600181019050611ed5565b50829750879550505050505092915050565b60006020820190508181036000830152611f398184611eaa565b905092915050565b7f4e487b7100000000000000000000000000000000000000000000000000000000600052603260045260246000fd5b7f4e487b7100000000000000000000000000000000000000000000000000000000600052601160045260246000fd5b6000611faa8261193d565b91507fffffffffffffffffffffffffffffffffffffffffffffffffffffffffffffffff8203611fdc57611fdb611f70565b5b600182019050919050565b7f4e487b7100000000000000000000000000000000000000000000000000000000600052602260045260246000fd5b6000600282049050600182168061202e57607f821691505b60208210810361204157612040611fe7565b5b50919050565b60008190508160005260206000209050919050565b60006020601f8301049050919050565b600082821b905092915050565b6000600883026120a97fffffffffffffffffffffffffffffffffffffffffffffffffffffffffffffffff8261206c565b6120b3868361206c565b95508019841693508086168417925050509392505050565b6000819050919050565b60006120f06120eb6120e68461193d565b6120cb565b61193d565b9050919050565b6000819050919050565b61210a836120d5565b61211e612116826120f7565b848454612079565b825550505050565b600090565b612133612126565b61213e818484612101565b505050565b5b818110156121625761215760008261212b565b600181019050612144565b5050565b601f8211156121a75761217881612047565b6121818461205c565b81016020851015612190578190505b6121a461219c8561205c565b830182612143565b50505b505050565b600082821c905092915050565b60006121ca600019846008026121ac565b1980831691505092915050565b60006121e383836121b9565b9150826002028217905092915050565b6121fc82611956565b67ffffffffffffffff81111561221557612214611b4a565b5b61221f8254612016565b61222a828285612166565b600060209050601f83116001811461225d576000841561224b578287015190505b61225585826121d7565b8655506122bd565b601f19841661226b86612047565b60005b828110156122935784890151825560018201915060208501945060208101905061226e565b868310156122b057848901516122ac601f8916826121b9565b8355505b6001600288020188555050505b50505050505056fea2646970667358221220a32bd039432b4cea4bd59c9fe6db6d492a9113511527d894079e61025232952564736f6c63430008130033",
  "immutableReferences": {},
  "source": "// SPDX-License-Identifier: GPL-3.0\n\npragma solidity ^0.8.10.0;\n// contract\n\n\ncontract FinancialTrackingSystem {\n    // storing transaction details\n    struct Transaction {\n        address donor;\n        address usaid;\n        uint256 amount;\n        string purpose;\n        uint256 timestamp;\n    }\n\n            // storing disburse transaction details\n    struct DisburseTransaction {\n        address usaid;\n        address receiver_org;\n        uint256 amount;\n        string organization_purpose;\n        uint256 timestamp;\n    }\n    \n\n    \n    // array to store all the transactions\n    Transaction[] public transactions;\n\n        //  array to store all the transactions\n    DisburseTransaction[] public disbursedTransactions;\n\n    //  creating new transactions\n    function createTransaction(address _donor, address _usaid, uint256 _amount, string memory _purpose) public {\n        Transaction memory newTransaction = Transaction({\n            donor: _donor,\n            usaid: _usaid,\n            amount: _amount,\n            purpose: _purpose,\n            timestamp: block.timestamp\n        });\n        transactions.push(newTransaction);\n    }\n    \n    //  retrieving all transactions\n    function getTransactions() public view returns (Transaction[] memory) {\n        return transactions;\n    }\n    \n    // transactions by donor\n    function getTransactionsByDonor(address _donor) public view returns (Transaction[] memory) {\n        uint256 count = 0;\n        for (uint256 i = 0; i < transactions.length; i++) {\n            if (transactions[i].donor == _donor) {\n                count++;\n            }\n        }\n        Transaction[] memory result = new Transaction[](count);\n        uint256 index = 0;\n        for (uint256 i = 0; i < transactions.length; i++) {\n            if (transactions[i].donor == _donor) {\n                result[index] = transactions[i];\n                index++;\n            }\n        }\n        return result;\n    }\n    \n    // retrieving all transactions by USAID\n    function getTransactionsByUSAID(address _usaid) public view returns (Transaction[] memory) {\n        uint256 count = 0;\n        for (uint256 i = 0; i < transactions.length; i++) {\n            if (transactions[i].usaid == _usaid) {\n                count++;\n            }\n        }\n        Transaction[] memory result = new Transaction[](count);\n        uint256 index = 0;\n        for (uint256 i = 0; i < transactions.length; i++) {\n            if (transactions[i].usaid == _usaid) {\n                result[index] = transactions[i];\n                index++;\n            }\n        }\n        return result;\n    }\n\n\n\n    // creating new disburse transactions\n    function createDisburseTransaction(address _usaid, address _receiver_org, uint256 _amount, string memory _organization_purpose) public {\n        DisburseTransaction memory newTransaction = DisburseTransaction({\n            usaid: _usaid,\n            receiver_org: _receiver_org,\n            amount: _amount,\n            organization_purpose: _organization_purpose,\n            timestamp: block.timestamp\n        });\n        disbursedTransactions.push(newTransaction);\n    }\n    \n    //  retrieving all disburse transactions\n    function getDisburseTransactions() public view returns (DisburseTransaction[] memory) {\n        return disbursedTransactions;\n    }\n    \n    // transactions by disburser\n    function getTransactionsByDisburser(address _usaid) public view returns (DisburseTransaction[] memory) {\n        uint256 count = 0;\n        for (uint256 i = 0; i < disbursedTransactions.length; i++) {\n            if (disbursedTransactions[i].usaid == _usaid) {\n                count++;\n            }\n        }\n        DisburseTransaction[] memory result = new DisburseTransaction[](count);\n        uint256 index = 0;\n        for (uint256 i = 0; i < disbursedTransactions.length; i++) {\n            if (disbursedTransactions[i].usaid == _usaid) {\n                result[index] = disbursedTransactions[i];\n                index++;\n            }\n        }\n        return result;\n    }\n    \n    // retrieving all transactions by orgs\n    function getTransactionsByReceiver_orgORG(address _receiver_org) public view returns (DisburseTransaction[] memory) {\n        uint256 count = 0;\n        for (uint256 i = 0; i < disbursedTransactions.length; i++) {\n            if (disbursedTransactions[i].receiver_org == _receiver_org) {\n                count++;\n            }\n        }\n        DisburseTransaction[] memory result = new DisburseTransaction[](count);\n        uint256 index = 0;\n        for (uint256 i = 0; i < disbursedTransactions.length; i++) {\n            if (disbursedTransactions[i].receiver_org == _receiver_org) {\n                result[index] = disbursedTransactions[i];\n                index++;\n            }\n        }\n        return result;\n    }\n}\n",
  "sourcePath": "D:\\Repositories\\HackTrustHackathon\\contracts\\Finacial.sol",
  "compiler": {
    "name": "solc",
    "version": "0.8.19+commit.7dd6d404.Emscripten.clang"
  },
  "schemaVersion": "3.4.13",
  "updatedAt": "2023-04-28T16:36:23.099Z",
  "devdoc": {
    "kind": "dev",
    "methods": {},
    "version": 1
  },
  "userdoc": {
    "kind": "user",
    "methods": {},
    "version": 1
  }
}